:0200000280007C
:1000000000400820D10D0800CD0D0800CD0D0800DE
:10001000CD0D0800CD0D0800CD0D0800000000003A
:10002000000000000000000000000000CD0D0800EE
:10003000CD0D080000000000CD0D0800990F08004C
:10004000CD0D0800CD0D0800CD0D0800CD0D080028
:10005000CD0D0800CD0D0800CD0D0800CD0D080018
:10006000CD0D0800CD0D08006D0C0800810C0800B6
:10007000950C0800CD0D0800CD0D0800CD0D080031
:10008000CD0D0800CD0D0800CD0D0800CD0D0800E8
:10009000CD0D0800CD0D0800CD0D0800CD0D0800D8
:1000A000CD0D0800CD0D0800CD0D0800CD0D0800C8
:1000B000CD0D0800CD0D0800CD0D080010B5054C84
:1000C000237833B9044B13B10448AFF30080012304
:1000D000237010BD480500200000000054380800BF
:1000E000084B10B51BB108490848AFF30080084819
:1000F000036803B910BD074B002BFBD0BDE81040CF
:10010000184700BF000000004C05002054380800CC
:10011000543808000000000070B483B0202828BFC5
:100120002020002808BF01200021104E4FF4002598
:10013000182475630194019B5A1E0192002BFAD179
:1001400035630194019B5A1E0192002BFAD10131B3
:100150008142EED34FF400330193019B5A1E01926A
:10016000002BFAD103B070BC704700BF00100E40E6
:1001700082B04FF40022064B5A634FF400330193D0
:10018000019B5A1E0192002BFAD102B0704700BFAA
:1001900000100E4082B000230193019B984211D9B8
:1001A0000021094A0191019B934205D8019B01332B
:1001B0000193019B9342F9D9019B01330193019B68
:1001C0008342EFD302B070479F86010030B40468C9
:1001D000EF2C84BFEF2404601468EF2C84BFEF245D
:1001E00014600C68B4F5A07F24BF40F23F140C608B
:1001F0001C68B4F5A07F24BF40F23F141C60046863
:100200001568AC4284BF056014600A6818688242B1
:1002100084BF08601A6030BC704700BF70B431F012
:10022000070618D003460024124A30F814501580EF
:100230005D8815809D881580DD8815801D89158055
:100240005D8915809D891580DD89158008341033FE
:10025000B442EAD300E00024A14209D900EB4404EF
:1002600000EB4100034A34F8023B13808442FAD188
:1002700070BC704702000062F8B54FF0C44590238F
:100280002B800B4C7F23238026262E800423238063
:100290006420084FB8472E80242323802E802C23EF
:1002A00023806420B8472E803C232380F8BD00BF04
:1002B0000200006295010800044A931E02F5EF72E5
:1002C00023F8020F9342FBD1704700BF6405002062
:1002D000F0B5C7B2CEB2C0F3072E4FF0C44502242A
:1002E0002C8004F1C444A4F800E01FFA87FE4FF00C
:1002F000030CA5F800C0A4F800E0C1F3072E4FF0EE
:10030000060CA5F800C0A4F800E01FFA86FE4FF026
:10031000070CA5F800C0A4F800E002F1FF3E70440D
:10032000C0F307204FF0040EA5F800E02080013A4A
:100330003A44D2B20520288022805A1E1144C1F3CB
:10034000072108222A802180013B3344DBB20922A5
:100350002A802380F0BD00BF30B4050A0C0A4FF09C
:10036000C4420223138003F1C4431D80C0B203259D
:1003700015801880062010801C80C9B207201080CC
:10038000198030BC704700BF2DE9F84F67224FF04D
:10039000C4431A8002331B889BB2472B40F0DD8098
:1003A00007464FF0C44519232B806D4C4FF0490A86
:1003B000A4F800A093232B800C23238044232B80BC
:1003C0004FF04D03238045232B804FF01109A4F8F3
:1003D000009020232B804FF0400BA4F800B01D2389
:1003E0002B804FF0070323801E232B8000262680BE
:1003F0001F232B804FF00408A4F800801C232B80BF
:10040000A4F800801B232B80102323803220554B1F
:10041000984743232B80802323803220514B9847D9
:1004200046232B809521218047222A805122228039
:10043000482028802680A5F800A0362020804A2069
:100440002880A4F800904B202880662020804C2033
:1004500028804FF0140EA4F800E04FF04D0EA5F8E0
:1004600000E04FF0770EA4F800E04FF04E0EA5F834
:1004700000E04FF0130EA4F800E04FF04F0EA5F887
:1004800000E020805020288023802A8023800223BF
:100490002B80268003232B802680A5F800802680D1
:1004A00005232B80EF23238006232B8026804FF00B
:1004B00007022A80268008222A8001222280092021
:1004C00028803F2020802A80238016202880C82072
:1004D000208023202880218024202880218025211D
:1004E0002980FF212180272129802380282129801C
:1004F00023802921298023802A21298023802C21DF
:10050000298023802D21298023803A232B8022805B
:100510003B232B8022803C232B80F02323803D2211
:100520002A8026803E222A8038222280A5F800B028
:100530000F22228041222A8023807B683A6831463C
:100540003046094CA0473889084B98473146304619
:10055000074B98473046BDE8F88F0120BDE8F88F7B
:100560000200006295010800D1020800B9020800EB
:1005700059030800EF2811D8B1F5A07F10D208B5B3
:1005800089B280B2074B984722224FF0C4431A80A9
:10059000054B1A88054B1A80002008BD01207047C2
:1005A0000120704759030800640500200200006222
:1005B0002DE9F04184B003900291019204AA42F81F
:1005C000103D134601AA02A903A8214CA047039895
:1005D0000299009B0133019A01325B1A121A1D4CD9
:1005E000A047BDF80810BDF80C001B4B984722220D
:1005F0004FF0C4431A80039A019B9A1A009B03F19F
:100600000108029BC3EB080802FB0888134CA4FBFB
:100610000834E40907D0124FF026124D314638460F
:10062000A847013CFAD10D49A1FB0831C909C1EB2A
:100630000111A8EB01110A480A4B98474FF4A07327
:10064000F02200210846034CA04704B0BDE8F08129
:10065000CD010800D1020800590308008988888864
:10066000640500201D0208002DE9F04F83B0064606
:100670008846994201D0904204D1414630462C4CE4
:10068000A04751E081460F46121A5B1A002ACCBFE0
:1006900001214FF0FF310091002BCCBF01204FF022
:1006A000FF30019082EAE275A5EBE27583EAE3741C
:1006B000A4EBE374414630461E4B9847A5421ADD31
:1006C0004FEA6508002D2FDD009989460E444FF052
:1006D000010ADFF860B0A044454503DCC5EB08081B
:1006E000019B1F4439463046D8470AF1010A4E445F
:1006F0005545F0DA18E06710002C15DD019B9B468C
:1007000043441E464FF00108DFF828A02F44BC42A6
:1007100002DC3F1B009B994431464846D04708F114
:1007200001085E444445F1DA03B0BDE8F08F00BF34
:10073000B10508007505080001EB810100EB81009F
:100740000267704701EB810100EB8100426770474F
:1007500001EB810100EB81008267704701EB8101B1
:1007600000EB8100C0F88020704700BF10B5124830
:10077000124B98473E20124B9847124CA047002836
:10078000FCD04FF08070104B9847104CA0470028C9
:10079000FCD00F4B98470F4A0F4B9A620F4CA04763
:1007A0000028FCD010200E4B98470E4B984702486B
:1007B000024B984710BD00BF00D8B805A900002023
:1007C000110D0800390D0800590D0800490D0800E9
:1007D000790D0800013F0F2000040E40890D08002C
:1007E000A90C08007D0E080070B54FF400427C4B48
:1007F0005A600A207B4CA0470B20A0470C20A04742
:100800004FF060512020784CA0474FF060512120DC
:10081000A04776491220A04775491320A0474FF002
:1008200000624FF4C0517348734B98474FF000611A
:100830000D20A0474FF000610E20A0474FF000614F
:100840000F20A0474FF000611020A0474FF08051CB
:100850000120A0474FF000611520A0474FF0006134
:100860001420A047654D29462920A04729462A2063
:10087000A04729462B20A04729462C20A0472946DF
:100880002D20A04729462E20A04729462F20A047EB
:1008900029463020A04729463920A04729463A203A
:1008A000A04729463B20A04729463C20A04729468F
:1008B0003D20A04729463E20A04729463F20A0478B
:1008C0004F4E31462620A04729463320A0472946CF
:1008D0003720A04729463420A04731462720A0478B
:1008E00029464F20A04731462820A04729464020CE
:1008F000A04729464120A04729464220A047294633
:100900004320A04729464420A04729464520A04728
:1009100029464620A04729464720A0472946482087
:10092000A04729464920A04729464A20A0472946F2
:100930004B20A04729465420A04729465520A047D0
:1009400029465620A04729465720A0472946582027
:10095000A04729465920A04729465A20A0472946A2
:100960002920A04729462A20A04729462B20A04716
:1009700029462C20A04729462D20A04729462E2075
:10098000A04729462F20A04729463020A0472946C6
:100990003920A04729463A20A04729463B20A047B6
:1009A00029463C20A04729463D20A04729463E2015
:1009B000A04729463F20A04731462620A047294688
:1009C0003320A04729463720A04729465020A0477A
:1009D00031462820A0474FF040515320A04770BD1A
:1009E00050120E40990D0800A90A08007300002853
:1009F00053000028000C0E407D0B08000100000889
:100A0000010000104264B1F1805F16D004D8C1B17A
:100A1000B1F1006F0AD013E0B1F1405F11D0B1F134
:100A2000605F0ED0B1F1205F0AD17047016F036F94
:100A30000B4023EA0203036702E0036F13430367DB
:100A400042607047416412F0010F14BF41660166B5
:100A500012F00A0F14BF0162416212F0020F02D0BD
:100A6000C0F8801004E012F0080F18BFC0F884101E
:100A700041610160704700BF10B44164019C0CB13A
:100A8000416600E001660BB1016500E041650AB115
:100A9000016300E041630161016010BC704700BF69
:100AA000C06C7047806C704770B582B00D464309CA
:100AB00003F5001303F206735C0201F0F043B3F197
:100AC000205F30D006D8B3F1006F0AD0B3F1805F59
:100AD00018D049E0B3F1405F30D0B3F1605F2DD062
:100AE00042E000F01F000126864032464FF00061D0
:100AF00020461F4B984715F0010F14BF6666266607
:100B0000012032E000F01F000126864032464FF0FF
:100B100080512046164B984715F0010F14BF6666AA
:100B20002666012021E000F01F0101262A4606FA70
:100B300001F120460F4B9847304616E005F0605211
:100B400000F01F01012605EA06030093C5F38003A8
:100B5000B2F1605F14BF0022012206FA01F12046C3
:100B6000054CA047304600E0002002B070BD00BF39
:100B7000050A0800450A0800790A080070B582B025
:100B800005460E46144602F0F043B3F1205F26D02E
:100B900006D8B3F1006F0AD0B3F1805F13D034E010
:100BA000B3F1405F1FD0B3F1605F1CD02DE00A4667
:100BB0004FF00061164B984714F0010F14BF6E669A
:100BC0002E66012022E00A464FF08051104B9847D4
:100BD00014F0010F14BF6E662E66012016E00D4B57
:100BE0009847012012E004F0605204F001030093E2
:100BF000C4F38003B2F1605F14BF002201223146CA
:100C00002846054CA047012000E0002002B070BD3E
:100C1000050A0800450A0800790A08002DE9F04194
:100C2000044688460E4B9847054620460D4B98478C
:100C3000054013D00C4C04F160062368434508D1ED
:100C40006168294205D0E36840469847636825EA11
:100C50000305B44202D01034002DEED1BDE8F0817E
:100C6000A10A0800A50A08004407002008B50A21C7
:100C70000148024B984708BD000C0E401D0C0800AF
:100C800008B50B210148024B984708BD000E0E40E5
:100C90001D0C080008B50C210148024B984708BDFF
:100CA00000100E401D0C0800184A136B23F070034F
:100CB00018431063936E13F0080F03D009E0013B53
:100CC00003D11EE04FF4006310498A6E12F0080F42
:100CD000F5D00E4A136B23F0030343F002031363B2
:100CE000906E10F0080004D000207047013B03D143
:100CF00009E04FF4006305498A6E12F0080FF5D041
:100D00007047012070470120704700BF00040E406B
:100D1000084A136A23F0030343F45C1343F001030E
:100D2000000280B203431362936E13F0010FFBD0F5
:100D3000704700BF00040E40024B986E00F00100A7
:100D4000704700BF00040E40024B986E00F48030E4
:100D5000704700BF00040E40064B1B6A10B143F001
:100D6000807301E023F0807343F45C13014A136243
:100D7000704700BF00040E404FF00052014B9A62D2
:100D8000704700BF00040E40024B986E00F0020056
:100D9000704700BF00040E401D280ED81F280ED833
:100DA000094B9A690123834093430AD0012303FA34
:100DB00000F0054B186100207047012070470020AB
:100DC00070470020704700BF00040E40FEE700BFE0
:100DD00008B51E4B1E4A9A4203D01E4B1B4A9A422C
:100DE00004D31D4B1D4A9A420FD31AE017491C4BDE
:100DF0005B1A23F003030433154A134452F8040B1F
:100E000041F8040B9A42F9D1EBE7164B164AD21A75
:100E100022F003021A44043B002143F8041B9342CE
:100E2000FBD1124B23F0604222F07F0210498A600E
:100E300003F16043B3F5404F03D28B6843F0005396
:100E40008B600C4B98470C4B9847FEE70000002046
:100E500054380800480500204808002048050020B4
:100E6000470500204C0500204B080020000008002A
:100E700000ED00E011350800E51708003E4B1B6B44
:100E800003F00303032B5FD8DFE803F0020E2B2BE4
:100E90003A4B5B6913F0800F14BF4FF400424FF4DC
:100EA000FA42374B1A604FE0334B1B6A13F0807FD6
:100EB00003D0344A324B1A6046E0334A304B1A6052
:100EC0002D4B1B6A03F07003102B02D0202B04D093
:100ED0003AE02E4A2A4B1A6036E02A4A284B1A601A
:100EE00032E0254B1B6A13F0807F03D0254A244B48
:100EF0001A6012E0244A224B1A601F4B1B6A03F04F
:100F00007003102B02D0202B04D006E01F4A1C4B8C
:100F10001A6002E01B4A1A4B1A60174B1B6B03F056
:100F20000303022B0DD1144A936A926A1448C3F347
:100F30000A41036801FB0333D2B2B3FBF2F303604F
:100F400002E0134A0E4B1A600B4B1B6B03F070034D
:100F5000702B07D10A4A13680E49A1FB03135B08E3
:100F600013607047044B1B6B0549C3F302120B68F7
:100F7000D3400B60704700BF00040E4010120E40BB
:100F800018010020001BB70000093D0000127A0084
:100F9000001C4E0EABAAAAAA024A136801331360C2
:100FA000704700BFB407002010B582B002AB03E960
:100FB00003000D4BB3F90020BDF9000002FB00F067
:100FC00020F00F03BDF90400104493FBF0F000F58E
:100FD000F060064B98470022054B064CA047064B95
:100FE000984700B202B010BDB8070020C12E08001B
:100FF0000000B03F8D2F0800C134080010B582B04A
:1010000002AB03E903000D4BB3F90020BDF9020068
:1010100002FB00F020F00F03BDF90400104493FB25
:10102000F0F000F51660064B98470022054B064C81
:10103000A047064B984700B202B010BDB807002089
:10104000C12E08000000B03F8D2F0800C1340800F9
:101050002DE9F04F85B04FF6FF70B34CA0474FF429
:10106000A073F02200210846B04DA8474FF4784005
:10107000A047AF4B1E689C8830462146AD4DA8471F
:10108000804630462146AC4CA0478146AB4B1F689A
:101090009E8838463146A847824638463146A047A2
:1010A0000346524649464046A54EB047A34BD3F8A7
:1010B00000809F8840463946A847814640463946C9
:1010C000A04782469F4BD3F800809F884046394610
:1010D000A847834640463946A04703465A465146EC
:1010E0004846B047974BD3F800809F884046394622
:1010F000A847019040463946A0478246DFF8509203
:10110000D9F80080B9F8047040463946A8478346AC
:1011100040463946A04703465A4651460198B047D3
:10112000D9F80080B9F8047040463946A8470190C4
:1011300040463946A04782467D4BD3F800809F88C1
:1011400040463946A847834640463946A0470346AD
:101150005A4651460198B0477B4BD3F800809F8890
:1011600040463946A847019040463946A047824646
:10117000764BD3F800809F8840463946A84783467F
:1011800040463946A04703465A4651460198B04763
:101190006E4BD3F800809F8840463946A84701909F
:1011A00040463946A0478346DFF8A8A1DAF8008018
:1011B000BAF8047040463946A8470290404639467E
:1011C000A0470346029A59460198B047DAF80080D2
:1011D000BAF8047040463946A8470190404639465F
:1011E000A0470290DFF870B1DBF80080BBF8047014
:1011F00040463946A847039040463946A047034633
:10120000039A02990198B047DBF80080BBF804709C
:1012100040463946A847019040463946A0470290CB
:10122000494BD3F800809F8840463946A847039031
:1012300040463946A0470346039A02990198B047B1
:101240003B4B1F68B3F8048038464146A8470190DD
:1012500038464146A04702903B4BD3F800809F8818
:1012600040463946A847039040463946A0470346C2
:10127000039A02990198B047304BD3F800809F88B9
:1012800040463946A847019040463946A04702905B
:101290002E4BD3F800809F8840463946A8470390DC
:1012A00040463946A0470346039A02990198B04741
:1012B000244B1F68B3F8048038464146A847019084
:1012C00038464146A0470290DAF80080BAF8047028
:1012D00040463946A847824640463946A04703461D
:1012E000524602990198B047D9F80080B9F80470C5
:1012F00040463946A847814640463946A04782467F
:10130000DBF80080BBF8047040463946A847054624
:1013100040463946A04703462A4651464846B0470C
:1013200005B0BDE8F08F00BFB9020800B1050800A4
:10133000EC070020A90F0800FD0F0800BC070020E3
:101340006906080028080020E4070020FC070020A8
:1013500030080020C4070020F40700202DE9F047E2
:1013600006460D4690469946B0F900300B8010466F
:101370004946164B9847DFF864A00022144BD0472B
:10138000144FB847044640464946134B984700223D
:101390000F4BD047B847B6F9023004FB03F2B6F959
:1013A000043000FB03F31B11C3EB22136B80B6F96F
:1013B000023000FB03F0B6F9043004FB03F42411FF
:1013C00004EB2010A880BDE8F08700BF11190800C9
:1013D00000003040C1340800A11908008D2F08001A
:1013E0002DE9F04706460D469046994610461946A7
:1013F000174B9847DFF868A00022164BD047164FCE
:10140000B847044640464946144B98470022114BC2
:10141000D047B847B6F9043004FB03F2B6F9003000
:1014200000FB03F31B1103EB22132B80B6F90230F0
:101430006B80B6F9043000FB03F0B6F9003004FB12
:1014400003F42411C4EB2010A880BDE8F08700BF8E
:10145000A119080000003040C1340800111908002B
:101460008D2F08002DE9F04705460E469046994617
:1014700010461946174B9847DFF868A00022164B14
:10148000D047164FB847044640464946144B984744
:101490000022114BD047B847B5F9003004FB03F2E6
:1014A000B5F9023000FB03F31B11C3EB22133380A9
:1014B000B5F9003000FB03F0B5F9023004FB03F48A
:1014C000241104EB20107080B5F90430B380BDE81E
:1014D000F08700BF1119080000003040C134080037
:1014E000A11908008D2F08002DE9F04F91B0DFF809
:1014F0009C824FF68052A8F80020A8F80220A8F895
:101500000420DFF890C24FF42073ACF80030ACF840
:101510000220ACF80420DFF880E2AEF80030AEF82C
:101520000230AEF80420944F3A807B80BA80934E0C
:1015300032807280B380924D2B806A80AB80914C58
:1015400023806380A38090490A804B808B80D8F8E9
:1015500000000E90B8F80430ADF83C30DCF8000024
:101560000C90ADF83430DEF800000A90ADF82C3065
:1015700038680890ADF8243030680690B388ADF82C
:101580001C3028680490ADF8143020680290ADF843
:101590000C3008680090ADF804304FF00008524657
:1015A0005B467A490EA87A4DA84752465B46794970
:1015B0000CA8A84752465B4677490AA8A847524656
:1015C0005B466D4908A8A84752465B466B4906A88A
:1015D000A84752465B466A4904A8A84752465B465C
:1015E000684902A8A84752465B4667496846A8472B
:1015F00052465B4669490EA8694CA04752465B4675
:1016000068490CA8A04752465B4667490AA8A0470C
:1016100052465B46654908A8A04752465B46644966
:1016200006A8A047DFF8B89152465B46494604A891
:10163000A04752465B465F4902A8A0475E4F52460C
:101640005B4639466846A04752465B464F49534879
:101650005A4EB04752465B464E495248B0475246F2
:101660005B464D495048B04752465B4642494F4859
:10167000B04752465B4641494D48B04752465B46EB
:101680003F494846B04752465B463E494948B04705
:1016900052465B463C493846B04752465B463F4956
:1016A0000EA8A84752465B463E490CA8A84752469A
:1016B0005B463D490AA8A84752465B463B4908A8F5
:1016C000A84752465B463A4906A8A84752465B4699
:1016D000494604A8A84752465B46364902A8A8478F
:1016E00052465B4639466846A84752465B462749FC
:1016F0002A48A04752465B4626492A48A0475246F8
:101700005B4625492848A04752465B461A49274868
:10171000A04752465B4619492548A04752465B46BA
:1017200017494846A04752465B4616492148A047FC
:1017300052465B4614493846A047214B9847214CF6
:101740004046A0470022204B204DA847204B9847F9
:101750000FFA80F84046A04705A3D3E900231D4CAB
:10176000A04700221C4B1D4CA04782468B4616E723
:101770006E861BF0F921094030080020E4070020A4
:10178000FC070020C4070020F4070020EC0700201D
:101790005D130800BC070020280800204008002036
:1017A000E113080020080020CC070020DC070020FF
:1017B00038080020180800201008002065140800D0
:1017C00051100800C12E08000000F83F292C080025
:1017D000C13408008D2F080000806640E131080008
:1017E000D407002080B54FF41662314B1A80314B7C
:1017F0009847314B9847314B1B68314AA2FB032372
:101800009B09013BB3F1807F50D22E4A5360F026F2
:101810002D4B83F823600025956007231360092072
:101820002A4B98472A4C2B4A29462046DFF8D4A059
:10183000D0474FF0063229462046DFF8CC90C84703
:101840004FF0081229462046DFF8C080C04741F219
:10185000030229462046204FB847204A022120464D
:10186000D0471F4A02212046C8471E4A022120466F
:10187000C04741F2030202212046B8471A4C2660B5
:101880004FF4A073636025814FF6FF756581174B98
:1018900098472046164B98471920164B9847164BE9
:1018A00098472846154B9847154B9847FEE700BFC9
:1018B000B80700206D070800E9070800180100209C
:1018C000D34D621010E000E000ED00E0990D08003B
:1018D00000000E40000202025D0708000101090934
:1018E000040424240A002D000408002071010800CB
:1018F000890308001901080079020800B9020800EC
:10190000E9140800390708004507080051070800D6
:1019100030B5214A21F00043934287B01BDD1F4AB6
:10192000934205DD02460B4601F07CF907B030BD5D
:1019300002AA00F07DF800F0030001281AD0022866
:101940000FD008B3DDE9020101230093DDE9042390
:1019500000F0A6FFEAE70022002300F081FA07B0BA
:1019600030BDDDE90423DDE9020100F079FA01F17F
:101970000041DBE70090DDE90423DDE9020100F02E
:101980008FFF01F10041D1E7DDE90423DDE9020128
:1019900000F066FACAE700BFFB21E93FFFFFEF7FD7
:1019A00030B5214A21F00043934287B01BDD1F4A26
:1019B000934205DD02460B4601F034F907B030BD15
:1019C00002AA00F035F800F0030001281ED002281A
:1019D00011D0DDE9042300B3DDE9020100F040FA93
:1019E00001F10041EAE7002300930022002300F008
:1019F00057FF07B030BD01230093DDE90201DDE9A7
:101A0000042300F04DFF01F10041D7E7DDE9042395
:101A1000DDE9020100F024FAD0E70124DDE902014A
:101A2000009400F03DFFC9E7FB21E93FFFFFEF7F96
:101A30002DE9F04F944C21F00047A7428FB040F3BE
:101A400081801446914A0E46974226DC84A3D3E94E
:101A50000023002940F3A08101F0E4F88C4B80467C
:101A60009F42894600F083807FA3D3E9002301F0E1
:101A7000D9F802460B464046C4E90023494601F026
:101A8000D1F879A3D3E9002301F0CCF80125C4E90A
:101A9000020128460FB0BDE8F08F7E4A974240F31E
:101AA00083807D4A974258DC3D15A5F21645A7EB89
:101AB00005518B46824601F003FD01F001FA804694
:101AC000894642464B4650465946CDE9088901F0C1
:101AD000A9F80022714B01F059FA8B46824601F0B9
:101AE000EFFC01F0EDF98046894642464B465046F0
:101AF0005946CDE90A8901F095F80022674B01F0BB
:101B000045FA00220023CDE90C0101F0A7FC0028D2
:101B100000F06A81002340464946002201F09EFC05
:101B2000002814BF012302235D4802210190009187
:101B30002A46214608A800F0B7FA002EC0F24A81D2
:101B4000054606E0C2E9000100250024C2E902457D
:101B5000002528460FB0BDE8F08F02460B4601F085
:101B600061F80025C4E90201C4E90001F1E740A3DE
:101B7000D3E9002301F056F83FA3D3E9002306463A
:101B80000F4601F04FF802460B463046C4E90023E9
:101B9000394601F047F838A3D3E9002301F042F8B1
:101BA0000125C4E90201D4E700F030FF34A3D3E9F2
:101BB00000238046894601F0E9F90022394B01F003
:101BC00033F801F07DFC054601F07AF924A3D3E94E
:101BD0000023CDE9040101F0D9F902460B46404645
:101BE000494601F01FF820A3D3E9002382468B4623
:101BF000DDE9040101F0CAF91F2DCDE9020155DC30
:101C0000294B6A1E53F822309F424FD002460B46A2
:101C10005046594601F006F802460B468146884672
:101C2000C4E900234A4643465046594600F0FAFFAD
:101C3000DDE9022300F0F6FF02460B46002EC4E960
:101C4000022386DA4A4608F1004301F1004184E8A4
:101C50000C00E160A0606D427BE700BFAFF3008045
:101C600000004054FB21F93F3163621A61B4D03D5A
:101C70000000601A61B4D03D7370032E8A19A33B33
:101C800083C8C96D305FE43FFB21E93F7BD9024047
:101C9000FB21F93FFB213941FFFFEF7F000070413D
:101CA000CC3608000000E03F4C360800DDE9022396
:101CB0005046594600F0B6FF3F15C1F30A53FB1AD0
:101CC000102B81468846C4E90001ABDD58A3D3E957
:101CD0000023DDE9040101F059F9804689460246F6
:101CE0000B465046594600F09DFFCDE906010246DD
:101CF0000B465046594600F095FF42464B4600F0D1
:101D000091FF4DA3D3E9002380468946DDE9040114
:101D100001F03CF942464B4600F084FF02460B4678
:101D2000CDE90201DDE9060100F07CFF0B46024629
:101D30008846C1F30A517F1A312F8146C4E9002336
:101D400072DD3FA3D3E90023DDE9040101F01EF9B0
:101D50008046894602460B46DDE9060100F062FF37
:101D600002460B4682468B46DDE9060100F05AFF2B
:101D700042464B4600F056FF33A3D3E9002380468A
:101D80008946DDE9040101F001F942464B4600F0C5
:101D900049FFCDE9020139E700F046FF2E4B8046AE
:101DA0009F42894622D02AA3D3E9002300F03CFFBA
:101DB00002460B464046C4E90023494600F032FF84
:101DC00023A3D3E9002300F02FFF4FF0FF35C4E930
:101DD0000201BEE66268E36802F1004203F10043DB
:101DE00045426260E360B4E603239DE610A3D3E9B5
:101DF000002300F019FF10A3D3E9002306460F4685
:101E000000F012FF02460B463046C4E90023394673
:101E100000F008FF08A3D3E9002300F005FF4FF00E
:101E2000FF35C4E9020194E6DDE906ABFAE600BF3E
:101E30000000601A61B4D03D7370032E8A19A33B71
:101E40000000002E8A19A33BC14920259A837B39C3
:101E50003163621A61B4D03DFB21F93F00000000FC
:101E60002DE9F04F21F00046B6F1795F85B00C46C0
:101E700092469B4605466BDA01F022FB002800F0F3
:101E8000E7802A4623462846214601F07FF874A3BE
:101E9000D3E900238046894601F078F872A3D3E99C
:101EA000002300F0C1FE42464B4601F06FF870A3DC
:101EB000D3E9002300F0B6FE42464B4601F066F837
:101EC0006DA3D3E9002300F0AFFE42464B4601F07C
:101ED0005DF86BA3D3E9002300F0A4FE42464B4615
:101EE00001F054F868A3D3E9002300F09DFE4246B8
:101EF0004B4601F04BF8CDE900010022644B40460F
:101F0000494601F043F8DDE9002306460F46404606
:101F1000494601F03BF85246804689465B462846D2
:101F2000214601F033F802460B464046494600F090
:101F300079FE02460B463046394600F073FE0246F3
:101F40000B460020534900F06DFE05B0BDE8F08F50
:101F500002460B4601F01AF841A3D3E9002380465C
:101F6000894601F013F840A3D3E9002300F05CFE9A
:101F700042464B4601F00AF83DA3D3E9002300F0A6
:101F800051FE42464B4601F001F83BA3D3E9002342
:101F900000F04AFE42464B4600F0F8FF38A3D3E972
:101FA000002300F03FFE42464B4600F0EFFF36A311
:101FB000D3E9002300F038FE4B46424600F0E6FF2E
:101FC000354BCDE900019E4297DD344B00229E4205
:101FD00038DCA6F5001300202E4916461F4600F0F7
:101FE00021FECDE902010022294B4046494600F07E
:101FF000CDFF32463B4600F015FEDDE900230646E4
:102000000F464046494600F0C1FF52468046894689
:102010005B462846214600F0B9FF02460B46404683
:10202000494600F0FFFD02460B463046394600F0B7
:10203000F9FD02460B46DDE9020100F0F3FD05B0B3
:10204000BDE8F08F164B0026CDE90223154FCAE7F5
:102050001049002005B0BDE8F08F00BFAFF300804D
:10206000D43888BEE9FAA8BDC4B1B4BD9EEE213E05
:10207000AD529C804F7E923E9015CB19A001FA3E46
:102080007751C1166CC1563F4C5555555555A53F16
:102090000000E03F0000F03F3233D33F0000E93F53
:1020A0000000E73F0000D23F2DE9F04F7A4CADF53C
:1020B0001D7D1F460C93D31E84FB0354DB17C3EB1B
:1020C000A403A69E754C23EAE37554F826406B1CC6
:1020D00026460994A3EB83037C1E0D95029402EB24
:1020E000C3032D1B341904900A91089316D42C4471
:1020F000013422AEA79F08E057F8250000F0E0FE6B
:102100000135A542E6E9020108D0002DF4DA0135D7
:1021100000200021A542E6E90201F6D1099B002B2F
:1021200031DB099A0C9B74A901EBC20BC3EB43731F
:10213000029A24A9DB0001EBC20901930DF5E47AB0
:10214000029B002BC0F290814C46049B0026A3F119
:102150000805019B002709EB0308F5E9022374E851
:10216000020100F013FF02460B463046394600F0EC
:102170005BFD444506460F46EFD1EAE90267DA45C2
:1021800009F10809DCD1099B10A91D4603F1804320
:10219000023B9B001A1D0A440B440F920E939CAB0A
:1021A00003EBC503002D53E928672BDD9CAB03EB44
:1021B000C504A83C0DF13C0A0DF5E47B0022384B28
:1021C0003046394600F0E2FE01F07AF900F078FE80
:1021D0000022344B8046894600F0D8FE02460B466A
:1021E0003046394600F01EFD01F06AF974E802231A
:1021F0004AF8040F4946404600F016FD5C45064685
:102200000F46DBD1089C30463946224600F08CFC54
:1022100000224FF07F5306460F4600F0B7FE00F055
:10222000FBFB0022204B00F0B1FE02460B4630467D
:10223000394600F0F7FC0F46064601F041F98146A9
:1022400000F03EFE02460B463046394600F0EAFCFE
:10225000002C06460F4640F3EE80681E10AB53F884
:102260002030C4F1180243FA02F101FA02F29B1A7B
:10227000C4F1170810AA42F82030894443FA08F83C
:10228000B8F1000F3DDD002D09F1010940F3D582C1
:10229000002214460FA911E0ABAAAA2AD4370800DD
:1022A0000000703E0000704100002040C3F18070CB
:1022B0000BB108600124013295420DDD51F8043F55
:1022C000002CF3D0C3F1FF13013203F57F43954295
:1022D0000B604FF00104F1DC089B002B0DDD012B9E
:1022E00000F0B180022B08D16A1E10AB53F82230E7
:1022F00010A9C3F3150341F82230B8F1020F00F022
:102300008180002200233046394601F0A7F80028DA
:1023100000F05D82099B05F1FF3B5B4510DC05F198
:10232000804310AA013B0F9802EB8303002253F86D
:102330000419834242EA0102F9D1002A40F0B18037
:10234000099B10AA013B52F82330002B40F0738206
:102350000E9A012352F8041901330029FAD0E91822
:102360006A1C8A420B914BDC0D990C985118DB00CA
:1023700001F180410593A79B05440139E80003EB77
:10238000810A24ABD20003EB000B74AB134401931E
:10239000A2F10803069007934FF000095AF8040FC2
:1023A00000F08EFD029BEBE80201002B4FF00006CF
:1023B0004FF000071BDB069B03EB0904079B09EBAF
:1023C000030824AB1C449844049BA3F10805F5E9D9
:1023D000022374E8020100F0D9FD02460B463046A4
:1023E000394600F021FC444506460F46EFD1019BDB
:1023F00009F10809E3E802670193059B9945CDD1EE
:102400000B9DCCE632463B460020B14900F00AFC69
:1024100006460F46002C3FF474AF089A0020AC49E2
:1024200000F082FB02460B463046394600F0FAFBCC
:1024300006460F4665E710D16B1E10AA52F82330EE
:102440004FEAE3581CE76A1E10AB53F8223010A97C
:10245000C3F3160341F822304FE700229D4B01F0F1
:102460001BF858B980464CE700260027EAE90267C6
:10247000DA4509F108097FF463AE84E6002D09F11D
:102480000109C8BF4FF002083FF702AF32463B4692
:1024900000208F4900F0C6FB4FF0020806460F46A9
:1024A0002FE7089A10AB53F82B30183ACDF8149058
:1024B000CDF8048008926BB90BF18043013B10A961
:1024C00001EB830353F804190BF1FF3B183A002981
:1024D000F8D00892089A00207D4900F025FBBBF156
:1024E000000F04460D46C0F2B8814FEACB030DF54C
:1024F000E87810AA02EB8B0608EB03090493043674
:1025000009F1080756F8040D00F0DAFC22462B46C4
:1025100000F03CFD002267E902016F4B204629468E
:1025200000F034FDB84504460D46EBD14B46CDF8DE
:1025300018B09B460DF5987ACDF808A0DDF824A0D8
:102540004FF00009BAF1000FC0F228815EA3D3E971
:102550000023DFF888815D4600260027002403E081
:10256000A14510DBF8E90223F5E8020100F00EFDB9
:1025700002460B463046394600F056FB0134A24570
:1025800006460F46ECDA029BABF1080B03EBC903DE
:10259000C3E9006772AB5B4509F10109D2D1A69B83
:1025A000DDF818B0DDF808A0032B00F28380DFE827
:1025B00013F0D300970097000400BBF1000F40F325
:1025C0005681049BCDF808B053449846D3E9006780
:1025D000D34658E9029A32463B464846514600F0F7
:1025E00023FB04460D4602460B464846514600F082
:1025F00019FB32463B4600F017FBC8E9000168E9C9
:102600000245C34526462F46E3D1DA46DDF808B039
:10261000BBF1010F40F32B81049B0DF59C7B5344D0
:102620009846D3E90067994659E902343046CDE926
:1026300002341A463946234600F0F6FA04460D469F
:1026400002460B46DDE9020100F0ECFA32463B4659
:1026500000F0EAFAC9E9000169E90245CB452646DE
:102660002F46E1D100231D4608F1080850AC18465A
:1026700078E90223294600F0D7FA444503460D467F
:10268000F5D1019A002A00F0DA80DAF80440DAF88D
:102690000C200A9FDAF80010DAF8080005F100456E
:1026A00004F1004402F100427D613B617C60FA600C
:1026B0003960B860059B03F007000DF51D7DBDE88E
:1026C000F08F00BFAFF3008000000040FB21F93F16
:1026D0000000F03F0000E03F0000703EE8370800D7
:1026E00000242146049D0835554475E902232046FF
:1026F00000F09AFA55450446F7D1019B002B50D0C3
:102700000A9F01F100450B46DAE9000187E8300035
:10271000224600F087FABBF1000F03460D460DDD9F
:1027200001241846FAE90223294600F07DFA013413
:10273000A34503460D46F4DA019A0AB105F10045B6
:10274000184629460A9BC3E90201059B03F00700CE
:102750000DF51D7DBDE8F08F00231C46049A08325C
:10276000924418467AE90223214600F05DFA0BF103
:10277000FF3BBBF1FF3F03460C46F2D1019A0AB181
:1027800004F10044184621460A9BC3E90001059B59
:1027900003F007000DF51D7DBDE8F08F0026002732
:1027A000F1E626460F4622460A9C0B46DAE900016E
:1027B000C4E9006700F036FABBF1000F03460D468E
:1027C000AEDC184629460A9BC3E90201BDE7089B17
:1027D00030465A423946CDF81490CDF8048000F0C6
:1027E000A3F900222C4B06460F4600F055FE0028A8
:1027F00040D00022294B3046394600F0C7FB00F09C
:102800005FFE044600F05CFB0022234B00F0BEFBA1
:102810000B4602463946304600F004FA00F050FEFE
:10282000089B05F1010B1833089310AB43F8250002
:1028300043F82B404EE6012391E500244CE5184671
:10284000DAE90067DAE9022329460A9DC5E900674B
:10285000C5E90401C5E902232CE7A69B032B3FF63B
:1028600029AFDFE803F0151010020DF5987A002368
:102870001D4606E73046394600F022FE10ABAB4657
:1028800043F8250026E6002421460DF5987A34E722
:1028900000231C4672E700BF000070410000703E3C
:1028A0002DE9F04F21F00046B6F1795F85B00C4676
:1028B00090469946054604DA00F002FE002800F032
:1028C00085802A4623462846214600F05FFB0646BF
:1028D0000F4602460B462846214600F057FB3EA312
:1028E000D3E9002382468B463046394600F04EFB42
:1028F0003BA3D3E9002300F095F932463B4600F0B4
:1029000045FB39A3D3E9002300F08EF932463B465C
:1029100000F03CFB36A3D3E9002300F083F93246F4
:102920003B4600F033FB34A3D3E9002300F07CF9ED
:102930000E9BCDE900019BB30022334B4046494634
:1029400000F024FBDDE90023CDE9020150465946A1
:1029500000F01CFB02460B46DDE9020100F062F9C3
:1029600032463B4600F012FB42464B4600F05AF915
:1029700023A3D3E9002306460F465046594600F0EC
:1029800005FB02460B463046394600F04DF902463B
:102990000B462846214600F045F905B0BDE8F08F0A
:1029A00002460B463046394600F0F0FA14A3D3E94C
:1029B000002300F037F952465B4600F0E7FA2A465A
:1029C000234600F031F905B0BDE8F08F28462146D6
:1029D00005B0BDE8F08F00BF7CD5CF5A3AD9E53DB0
:1029E000EB9C2B8AE6E55A3E7DFEB157E31DC73EC0
:1029F000D561C119A0012A3FA6F810111111813F1C
:102A0000495555555555C53F0000E03F21F000415F
:102A1000704700BF00000000C1F30A522DE9F843DF
:102A2000A2F2FF36132E0B4604460D468846074693
:102A30001CDC002E3FDB3A4A864642FA06F901EAE0
:102A40000902024317D034A3D3E9002300F0ECF8C5
:102A50000022002300F02AFD20B1002D40DB28EAEF
:102A60000905002738462946BDE8F883332E06DDE0
:102A7000B6F5806F2FD020461946BDE8F883A2F244
:102A800013424FF0FF3929FA02F910EA090FF2D088
:102A900021A3D3E9002300F0C7F80022002300F0AF
:102AA00005FD0028DED0002D20DB454627EA09077A
:102AB00038462946D8E718A3D3E9002300F0B4F834
:102AC0000022002300F0F2FC0028CBD0002D18DB00
:102AD00000273D46C6E702460B4600F0A5F8CCE7C6
:102AE0004FF4801343FA06F6B044B8E7142E10D022
:102AF0000123C6F1340603FA06F6371928BF9844B5
:102B0000D3E725F00042074B224318BF1D4600279C
:102B1000A8E705F10108C8E79C7500883CE4377E0A
:102B2000FFFF0F000000F0BFF8B5C1F30A560446DE
:102B30000D460B46174606BB21F00043034325D044
:102B400000222F4B00F022FA2E4A044697420D46EF
:102B50000B462ADBC1F30A56363E40F2FE723E4473
:102B6000964228DC002E12DD23F0FF4323F4E0031D
:102B700043EA065520462946F8BD40F2FF729642C8
:102B8000EBD102460B4600F04FF8F8BDF8BD16F148
:102B9000350F1DDA4CF250339F420CDC14A1D1E901
:102BA000000122462B4600F031F811A3D3E900239F
:102BB00000F0ECF9F8BD22460FA1D1E900012B4647
:102BC00000F024F80CA3D3E9002300F0DFF9F8BDEE
:102BD00023F0FF4323F4E003363643EA065520464C
:102BE00029460022084B00F0D1F9F8BDAFF3008070
:102BF00059F3F8C21F6EA5019C7500883CE4377E2E
:102C000000005043B03CFFFF0000903C03F0004345
:102C100021F0004242EA0301704700BF81F0004109
:102C200002E000BF83F0004330B54FEA41044FEAB1
:102C3000430594EA050F08BF90EA020F1FBF54EA4C
:102C4000000C55EA020C7FEA645C7FEA655C00F0E8
:102C5000E2804FEA5454D4EB5555B8BF6D420CDDB9
:102C60002C4480EA020281EA030382EA000083EA3C
:102C7000010180EA020281EA0303362D88BF30BDDC
:102C800011F0004F4FEA01314FF4801C4CEA113132
:102C900002D0404261EB410113F0004F4FEA033391
:102CA0004CEA133302D0524263EB430394EA050F1C
:102CB00000F0A780A4F10104D5F1200E0DDB02FA8B
:102CC0000EFC22FA05F2801841F1000103FA0EF21F
:102CD000801843FA05F359410EE0A5F120050EF1E5
:102CE000200E012A03FA0EFC28BF4CF0020C43FA16
:102CF00005F3C01851EBE37101F0004507D54FF023
:102D0000000EDCF1000C7EEB00006EEB0101B1F572
:102D1000801F1BD3B1F5001F0CD349085FEA3000B8
:102D20004FEA3C0C04F101044FEA445212F5800FC3
:102D300080F09A80BCF1004F08BF5FEA500C50F160
:102D4000000041EB045141EA050130BD5FEA4C0C43
:102D5000404141EB010111F4801FA4F10104E9D1CC
:102D600091F0000F04BF01460020B1FA81F308BFC3
:102D70002033A3F10B03B3F120020CDA0C3208DD8F
:102D800002F1140CC2F10C0201FA0CF021FA02F16A
:102D90000CE002F11402D8BFC2F1200C01FA02F1DA
:102DA00020FA0CFCDCBF41EA0C019040E41AA2BFFF
:102DB00001EB0451294330BD6FEA04041F3C1CDAC7
:102DC0000C340EDC04F11404C4F1200220FA04F0E7
:102DD00001FA02F340EA030021FA04F345EA030191
:102DE00030BDC4F10C04C4F1200220FA02F001FA53
:102DF00004F340EA0300294630BD21FA04F02946D5
:102E000030BD94F0000F83F4801306BF81F480116D
:102E10000134013D4EE77FEA645C18BF7FEA655CE0
:102E200029D094EA050F08BF90EA020F05D054EAB2
:102E3000000C04BF1946104630BD91EA030F1EBFB7
:102E40000021002030BD5FEA545C05D140004941BB
:102E500028BF41F0004130BD14F580043CBF01F5AE
:102E6000801130BD01F0004545F0FE4141F4700194
:102E70004FF0000030BD7FEA645C1ABF194610466F
:102E80007FEA655C1CBF0B46024650EA013406BF70
:102E900052EA033591EA030F41F4002130BD00BF2F
:102EA00090F0000F04BF0021704730B54FF48064EC
:102EB00004F132044FF000054FF0000150E700BF6D
:102EC00090F0000F04BF0021704730B54FF48064CC
:102ED00004F1320410F0004548BF40424FF00001B9
:102EE0003EE700BF42004FEAE2014FEA31014FEAFC
:102EF00002701FBF12F07F4393F07F4F81F060514B
:102F0000704792F0000F14BF93F07F4F704730B5B9
:102F10004FF4607401F0004521F0004120E700BF4C
:102F200050EA010208BF704730B54FF000050AE0D3
:102F300050EA010208BF704730B511F0004502D5D4
:102F4000404261EB41014FF4806404F132045FEAD6
:102F5000915C3FF4DCAE4FF003025FEADC0C18BF7B
:102F600003325FEADC0C18BF033202EBDC02C2F171
:102F7000200300FA03FC20FA02F001FA03FE40EA03
:102F80000E0021FA02F11444C1E600BF70B54FF003
:102F9000FF0C4CF4E06C1CEA11541DBF1CEA1355E5
:102FA00094EA0C0F95EA0C0F00F0DEF82C4481EA4D
:102FB000030621EA4C5123EA4C5350EA013518BF6D
:102FC00052EA033541F4801143F4801338D0A0FB5A
:102FD00002CE4FF00005E1FB02E506F00042E0FB07
:102FE00003E54FF00006E1FB03569CF0000F18BF0D
:102FF0004EF0010EA4F1FF04B6F5007F64F54074B5
:1030000004D25FEA4E0E6D4146EB060642EAC62147
:1030100041EA55514FEAC52040EA5E504FEACE2EB4
:10302000B4F1FD0C88BFBCF5E06F1ED8BEF1004FB7
:1030300008BF5FEA500E50F1000041EB045170BD33
:1030400006F0004646EA010140EA020081EA030177
:10305000B4EB5C04C2BFD4EB0C0541EA045170BD73
:1030600041F480114FF0000E013C00F3AB8014F1ED
:10307000360FDEBF002001F0004170BDC4F1000436
:10308000203C35DA0C341BDC04F11404C4F12005B7
:1030900000FA05F320FA04F001FA05F240EA020012
:1030A00001F0004221F0004110EBD37021FA04F648
:1030B00042EB06015EEA430E08BF20EAD37070BD02
:1030C000C4F10C04C4F1200500FA04F320FA05F061
:1030D00001FA04F240EA020001F0004110EBD37063
:1030E00041F100015EEA430E08BF20EAD37070BDD3
:1030F000C4F1200500FA05F24EEA020E20FA04F3AC
:1031000001FA05F243EA020321FA04F001F000415A
:1031100021FA04F220EA020000EBD3705EEA430ECB
:1031200008BF20EAD37070BD94F0000F0FD101F0FA
:103130000046400041EB010111F4801F08BF013C33
:10314000F7D041EA060195F0000F18BF704703F071
:103150000046520043EB030313F4801F08BF013DF8
:10316000F7D043EA0603704794EA0C0F0CEA1355B4
:1031700018BF95EA0C0F0CD050EA410618BF52EA6E
:103180004306D1D181EA030101F000414FF0000074
:1031900070BD50EA410606BF1046194652EA430682
:1031A00019D094EA0C0F02D150EA013613D195EAF6
:1031B0000C0F05D152EA03361CBF104619460AD13E
:1031C00081EA030101F0004141F0FE4141F4700148
:1031D0004FF0000070BD41F0FE4141F4780170BD38
:1031E00070B54FF0FF0C4CF4E06C1CEA11541DBF9D
:1031F0001CEA135594EA0C0F95EA0C0F00F0A7F89F
:10320000A4EB050481EA030E52EA03354FEA0131CB
:1032100000F088804FEA03334FF0805545EA1313DE
:1032200043EA12634FEA022245EA111545EA1065A6
:103230004FEA00260EF000419D4208BF964244F13D
:10324000FD0404F5407402D25B084FEA3202B61A5C
:1032500065EB03055B084FEA32024FF480104FF430
:10326000002CB6EB020E75EB030E22BFB61A7546A4
:1032700040EA0C005B084FEA3202B6EB020E75EB37
:10328000030E22BFB61A754640EA5C005B084FEA9F
:103290003202B6EB020E75EB030E22BFB61A75466C
:1032A00040EA9C005B084FEA3202B6EB020E75EB77
:1032B000030E22BFB61A754640EADC0055EA060E38
:1032C00018D04FEA051545EA16754FEA06164FEA7B
:1032D000C30343EA52734FEAC2025FEA1C1CC0D127
:1032E00011F4801F0BD141EA00014FF000004FF0B4
:1032F000004CB6E711F4801F04BF01430020B4F175
:10330000FD0C88BFBCF5E06F3FF6AFAEB5EB030C2C
:1033100004BFB6EB020C5FEA500C50F1000041EB29
:10332000045170BD0EF0004E4EEA113114EB5C04F6
:10333000C2BFD4EB0C0541EA045170BD41F48011C9
:103340004FF0000E013C90E645EA060E8DE60CEAD1
:10335000135594EA0C0F08BF95EA0C0F3FF43BAFEE
:1033600094EA0C0F0AD150EA01347FF434AF95EAA5
:103370000C0F7FF425AF104619462CE795EA0C0F89
:1033800006D152EA03353FF4FDAE1046194622E756
:1033900050EA410618BF52EA43067FF4C5AE50EA30
:1033A00041047FF40DAF52EA43057FF4EBAE12E720
:1033B0004FF0FF3C06E000BF4FF0010C02E000BF01
:1033C0004FF0010C4DF804CD4FEA410C7FEA6C5CE4
:1033D0004FEA430C18BF7FEA6C5C1BD001B050EA87
:1033E000410C0CBF52EA430C91EA030F02BF90EA72
:1033F000020F0020704710F1000F91EA030F58BF31
:10340000994208BF90422CBFD8176FEAE37040F092
:10341000010070474FEA410C7FEA6C5C02D150EA30
:10342000013C07D14FEA430C7FEA6C5CD6D152EAEB
:10343000033CD3D05DF8040B704700BF84461046B0
:1034400062468C461946634600E000BF01B5FFF7AF
:10345000B7FF002848BF10F1000F01BD4DF808ED7F
:10346000FFF7F4FF0CBF012000205DF808FB00BF50
:103470004DF808EDFFF7EAFF34BF012000205DF8AA
:1034800008FB00BF4DF808EDFFF7E0FF94BF0120F7
:1034900000205DF808FB00BF4DF808EDFFF7CEFFF8
:1034A00094BF012000205DF808FB00BF4DF808ED37
:1034B000FFF7C4FF34BF012000205DF808FB00BF08
:1034C0004FEA410212F5001215D211D56FF478734C
:1034D000B3EB625212D94FEAC12343F0004343EAEF
:1034E000505311F0004F23FA02F018BF40427047CA
:1034F0004FF00000704750EA013005D111F0004054
:1035000008BF6FF0004070474FF00000704700BFE9
:1035100070B50F4E0F4D761BB61018BF002405D0A6
:10352000013455F8043B9847A642F9D10A4E0B4D99
:1035300000F07EF9761BB61018BF002406D00134C7
:1035400055F8043B9847A642F9D170BD70BD00BF45
:103550003C3808003C380800443808003C38080073
:10356000024B13B1024800F005B87047000000009C
:1035700081350800002301461A46184600F014B8A9
:1035800038B5074D074C2C1BA41005D0013C55F84D
:10359000043D9847002CF9D1BDE8384000F052B9FD
:1035A00054380800503808002DE9F047254C0646ED
:1035B00025688846D5F8484192469946C4B3606864
:1035C0001F2817DC411C76B104EB8003C3F888A0E8
:1035D000D4F88851012282401543022EC4F8885144
:1035E000C3F808911ED0831C6160002044F823803A
:1035F000BDE8F087144B03B34FF4C870AFF30080FD
:103600000446D0B1D5F84831002784E88800384610
:10361000C5F848410121C4F88871C4F88C71002EA6
:10362000E1D0D1E7D4F88C311A43C4F88C21DAE721
:1036300005F5A674C5F84841C1E74FF0FF30BDE875
:10364000F08700BF2C38080000000000FB21F93F84
:10365000FB2109407CD91240FB2119407A6A1F40A6
:103660007CD92240BBFD2540FB2129403A462C4015
:103670007A6A2F405C4731407CD932409C6B3440A1
:10368000BBFD3540DB8F3740FB2139401BB43A404E
:103690003A463C405AD83D407A6A3F404C7E4040D2
:1036A0005C4741406C1042407CD942408CA2434070
:1036B0009C6B4440AC344540BBFD4540CBC64640C6
:1036C000DB8F4740EB584840FB21494083F9A2007B
:1036D000444E6E00FC291500D1572700DD34F5005B
:1036E00062DBC0003C999500419043006351FE00AD
:1036F000BBDEAB00B761C5003A6E2400D24D42007C
:103700004906E00009EA2E001C92D100EB1DFE00E4
:1037100029B11C00E83EA700F535820044BB2E000D
:103720009CE98400B4267000417E5F00D691390088
:10373000538339009CF439008B5F840028F9BD0065
:10374000F81F3B00DEFF97000F980500112FEF00D8
:103750000A5A8B006D1F6D00CF7E360009CB270003
:10376000464FB7009E663F002DEA5F00BA277500FE
:10377000E5EBC7003D7BF100F739070092528A0064
:10378000FB6BEA001FB15F00085D8D00300356003F
:103790007BFC4600F0AB6B0020BCCF0036F49A00F7
:1037A000E3A91D005E619100081BE6008599650094
:1037B000A0145F008D40680080D8FF0027734D0083
:1037C00006063100CA561500C9A873007BE26000E6
:1037D0006B8CC00002000000030000000400000029
:1037E000060000000000000000000040FB21F93F3F
:1037F000000000002D44743E000000809846F83C14
:103800000000006051CC783B00000080831BF03941
:103810000000004020257A38000000802282E33634
:10382000000000001DF36935430000002001002066
:10383000F8B500BFF8BC08BC9E467047613508006B
:10384000E1000800F8B500BFF8BC08BC9E46704710
:04385000BD000800AF
:103854004FF48063214A136002F50072136003F190
:10386400804303F560231B6A13F0807F07D11C4A51
:103874001C4B1A621A46936E13F0010FFBD01A4ABE
:10388400184B1A621A46936E13F4803FFBD0154A04
:10389400136B23F0030343F001031363936E13F0DC
:1038A400080FFBD0114A0F4B9A621A46936E13F01D
:1038B400020FFBD011220B4B1A631A46936E13F0BE
:1038C400080FFBD01222074B1A631A46936E13F0AB
:1038D400080FFBD0064A074B1A60704700080E40D9
:1038E4000908370000040E4009083701013F0F2082
:1038F40000D8B80518010020164B984206D80023BA
:10390400154A136002F5007213607047134B984216
:1039140007D84FF48073104A136002F500721360E5
:1039240070470F4B984207D84FF400730A4A13604C
:1039340002F50072136070470A4B984294BF4FF42B
:1039440040734FF48063044A136002F500721360FD
:10395400704700BFFF356E0100080E40FF59620238
:10396400FFA14A04FFBC010500093D00000000005E
:10397400000000000C04002074040020DC0400207B
:103984000000000000000000000000000000000033
:103994000000000000000000000000000000000023
:1039A40000000000283808000000000000000000AB
:1039B4000000000000000000000000000000000003
:1039C40000000000000000000000000000000000F3
:1039D40000000000000000000000000000000000E3
:1039E40000000000000000000000000000000000D3
:1039F40000000000000000000000000000000000C3
:103A040000000000000000000000000000000000B2
:103A140000000000000000000100000000000000A1
:103A24000E33CDAB34126DE6ECDE05000B00000066
:103A34000000000000000000000000000000000082
:103A44000000000000000000000000000000000072
:103A54000000000000000000000000000000000062
:103A64000000000000000000000000000000000052
:0400000380000DD19B
:00000001FF
