S00E0000466C616D65732E73726563BE
S21408000000400820710D08006D0D08006D0D0800F1
S2140800106D0D08006D0D08006D0D0800000000004D
S2140800200000000000000000000000006D0D080041
S2140800306D0D0800000000006D0D0800390F08005F
S2140800406D0D08006D0D08006D0D08006D0D08009B
S2140800506D0D08006D0D08006D0D08006D0D08008B
S2140800606D0D08006D0D08000D0C0800210C080029
S214080070350C08006D0D08006D0D08006D0D0800A4
S2140800806D0D08006D0D08006D0D08006D0D08005B
S2140800906D0D08006D0D08006D0D08006D0D08004B
S2140800A06D0D08006D0D08006D0D08006D0D08003B
S2140800B06D0D08006D0D08006D0D080010B5054C97
S2140800C0237833B9044B13B10448AFF300800123F7
S2140800D0237010BD4C05002000000000AC1C080072
S2140800E0084B10B51BB108490848AFF3008008480C
S2140800F0036803B910BD074B002BFBD0BDE81040C2
S214080100184700BF0000000050050020AC1C08007F
S214080110AC1C08000000000070B483B0202828BF7C
S2140801202020002808BF01200021104E4FF400258B
S214080130182475630194019B5A1E0192002BFAD16C
S21408014035630194019B5A1E0192002BFAD10131A6
S2140801508142EED34FF400330193019B5A1E01925D
S214080160002BFAD103B070BC704700BF00100E40D9
S21408017082B04FF40022064B5A634FF400330193C3
S214080180019B5A1E0192002BFAD102B0704700BF9D
S21408019000100E4082B000230193019B984211D9AB
S2140801A00021094A0191019B934205D8019B01331E
S2140801B00193019B9342F9D9019B01330193019B5B
S2140801C08342EFD302B070479F86010030B40468BC
S2140801D0EF2C84BFEF2404601468EF2C84BFEF2450
S2140801E014600C68B4F5A07F24BF40F23F140C607E
S2140801F01C68B4F5A07F24BF40F23F141C60046856
S2140802001568AC4284BF056014600A6818688242A4
S21408021084BF08601A6030BC704700BF70B431F005
S214080220070618D003460024124A30F814501580E2
S2140802305D8815809D881580DD8815801D89158048
S2140802405D8915809D891580DD89158008341033F1
S214080250B442EAD300E00024A14209D900EB4404E2
S21408026000EB4100034A34F8023B13808442FAD17B
S21408027070BC704702000062F8B54FF0C445902382
S2140802802B800B4C7F23238026262E800423238056
S2140802906420084FB8472E80242323802E802C23E2
S2140802A023806420B8472E803C232380F8BD00BFF7
S2140802B00200006295010800044A931E02F5EF72D8
S2140802C023F8020F9342FBD1704700BF6805002051
S2140802D0F0B5C7B2CEB2C0F3072E4FF0C44502241D
S2140802E02C8004F1C444A4F800E01FFA87FE4FF0FF
S2140802F0030CA5F800C0A4F800E0C1F3072E4FF0E1
S214080300060CA5F800C0A4F800E01FFA86FE4FF019
S214080310070CA5F800C0A4F800E002F1FF3E704400
S214080320C0F307204FF0040EA5F800E02080013A3D
S2140803303A44D2B20520288022805A1E1144C1F3BE
S214080340072108222A802180013B3344DBB2092298
S2140803502A802380F0BD00BF30B4050A0C0A4FF08F
S214080360C4420223138003F1C4431D80C0B2032590
S21408037015801880062010801C80C9B207201080BF
S214080380198030BC704700BF2DE9F84F67224FF040
S214080390C4431A8002331B889BB2472B40F0DD808B
S2140803A007464FF0C44519232B806D4C4FF0490A79
S2140803B0A4F800A093232B800C23238044232B80AF
S2140803C04FF04D03238045232B804FF01109A4F8E6
S2140803D0009020232B804FF0400BA4F800B01D237C
S2140803E02B804FF0070323801E232B8000262680B1
S2140803F01F232B804FF00408A4F800801C232B80B2
S214080400A4F800801B232B80102323803220554B12
S214080410984743232B80802323803220514B9847CC
S21408042046232B809521218047222A80512222802C
S214080430482028802680A5F800A0362020804A205C
S2140804402880A4F800904B202880662020804C2026
S21408045028804FF0140EA4F800E04FF04D0EA5F8D3
S21408046000E04FF0770EA4F800E04FF04E0EA5F827
S21408047000E04FF0130EA4F800E04FF04F0EA5F87A
S21408048000E020805020288023802A8023800223B2
S2140804902B80268003232B802680A5F800802680C4
S2140804A005232B80EF23238006232B8026804FF0FE
S2140804B007022A80268008222A8001222280092014
S2140804C028803F2020802A80238016202880C82065
S2140804D02080232028802180242028802180252110
S2140804E02980FF212180272129802380282129800F
S2140804F023802921298023802A21298023802C21D2
S214080500298023802D21298023803A232B8022804E
S2140805103B232B8022803C232B80F02323803D2204
S2140805202A8026803E222A8038222280A5F800B01B
S2140805300F22228041222A8023807B683A6831462F
S2140805403046094CA0473889084B9847314630460C
S214080550074B98473046BDE8F88F0120BDE8F88F6E
S2140805600200006295010800D1020800B9020800DE
S21408057059030800EF2811D8B1F5A07F10D208B5A6
S21408058089B280B2074B984722224FF0C4431A809C
S214080590054B1A88054B1A80002008BD01207047B5
S2140805A00120704759030800680500200200006211
S2140805B02DE9F04F85B0039002921378002B45D0B2
S2140805C08A460190DFF890800A2B04D10AF1100AB7
S2140805D0039B019334E003EB83031E4E06EB830371
S2140805E0A3F27F26019F3B460A3300930AF10709C8
S2140805F00724B3465D4616F8013C234113F0010F65
S21408060003D0C4EB09013846C047013CB4F1FF3FAC
S214080610F0D107240AF10F0B2B78234113F0010FB2
S21408062003D0C4EB0B013846C047013C012CF3D17C
S21408063002360137009BBB42DAD1019B0C3301938B
S214080640029A12F8013F0292002BBDD105B0BDE810
S214080650F08F00BFD81408007505080010B584B0E0
S2140806600390029102440192194404AB43F8101D0A
S21408067001AA02A903A8144CA04703980299009B54
S2140806800133019A01325B1A121A104CA047BDF8C2
S2140806900810BDF80C000E4B984722224FF0C443B2
S2140806A01A800399019B5B1A0299009A511A01FB5A
S2140806B003F10698074B98474FF4A073F0220021E1
S2140806C00846A04704B010BDCD010800D1020800B6
S2140806D0590308001D02080001EB810100EB8100A8
S2140806E00267704701EB810100EB810042677047A3
S2140806F001EB810100EB81008267704701EB810105
S21408070000EB8100C0F88020704700BF10B5124883
S214080710124B98473E20124B9847124CA047002889
S214080720FCD04FF08070104B9847104CA04700281C
S214080730FCD00F4B98470F4A0F4B9A620F4CA047B6
S2140807400028FCD010200E4B98470E4B98470248BE
S214080750024B984710BD00BF00D8B805A900002076
S214080760B10C0800D90C0800F90C0800E90C0800C0
S214080770190D0800013F0F2000040E40290D08003F
S214080780490C08001D0E080070B54FF400427C4B5B
S2140807905A600A207B4CA0470B20A0470C20A04795
S2140807A04FF060512020784CA0474FF06051212030
S2140807B0A04776491220A04775491320A0474FF056
S2140807C000624FF4C0517348734B98474FF000616E
S2140807D00D20A0474FF000610E20A0474FF00061A3
S2140807E00F20A0474FF000611020A0474FF080511F
S2140807F00120A0474FF000611520A0474FF0006188
S2140808001420A047654D29462920A04729462A20B6
S214080810A04729462B20A04729462C20A047294632
S2140808202D20A04729462E20A04729462F20A0473E
S21408083029463020A04729463920A04729463A208D
S214080840A04729463B20A04729463C20A0472946E2
S2140808503D20A04729463E20A04729463F20A047DE
S2140808604F4E31462620A04729463320A047294622
S2140808703720A04729463420A04731462720A047DE
S21408088029464F20A04731462820A0472946402021
S214080890A04729464120A04729464220A047294686
S2140808A04320A04729464420A04729464520A0477C
S2140808B029464620A04729464720A04729464820DB
S2140808C0A04729464920A04729464A20A047294646
S2140808D04B20A04729465420A04729465520A04724
S2140808E029465620A04729465720A047294658207B
S2140808F0A04729465920A04729465A20A0472946F6
S2140809002920A04729462A20A04729462B20A04769
S21408091029462C20A04729462D20A04729462E20C8
S214080920A04729462F20A04729463020A047294619
S2140809303920A04729463A20A04729463B20A04709
S21408094029463C20A04729463D20A04729463E2068
S214080950A04729463F20A04731462620A0472946DB
S2140809603320A04729463720A04729465020A047CD
S21408097031462820A0474FF040515320A04770BD6D
S21408098050120E40390D0800490A08007300002866
S21408099053000028000C0E401D0B0800010000083C
S2140809A0010000104264B1F1805F16D004D8C1B1CE
S2140809B0B1F1006F0AD013E0B1F1405F11D0B1F188
S2140809C0605F0ED0B1F1205F0AD17047016F036FE8
S2140809D00B4023EA0203036702E0036F134303672F
S2140809E042607047416412F0010F14BF4166016609
S2140809F012F00A0F14BF0162416212F0020F02D011
S214080A00C0F8801004E012F0080F18BFC0F8841071
S214080A1041610160704700BF10B44164019C0CB18D
S214080A20416600E001660BB1016500E041650AB168
S214080A30016300E041630161016010BC704700BFBC
S214080A40C06C7047806C704770B582B00D4643091D
S214080A5003F5001303F206735C0201F0F043B3F1EA
S214080A60205F30D006D8B3F1006F0AD0B3F1805FAC
S214080A7018D049E0B3F1405F30D0B3F1605F2DD0B5
S214080A8042E000F01F000126864032464FF0006123
S214080A9020461F4B984715F0010F14BF666626665A
S214080AA0012032E000F01F000126864032464FF053
S214080AB080512046164B984715F0010F14BF6666FE
S214080AC02666012021E000F01F0101262A4606FAC4
S214080AD001F120460F4B9847304616E005F0605265
S214080AE000F01F01012605EA06030093C5F38003FC
S214080AF0B2F1605F14BF0022012206FA01F1204617
S214080B00054CA047304600E0002002B070BD00BF8C
S214080B10A5090800E5090800190A080070B582B09A
S214080B2005460E46144602F0F043B3F1205F26D081
S214080B3006D8B3F1006F0AD0B3F1805F13D034E063
S214080B40B3F1405F1FD0B3F1605F1CD02DE00A46BA
S214080B504FF00061164B984714F0010F14BF6E66ED
S214080B602E66012022E00A464FF08051104B984727
S214080B7014F0010F14BF6E662E66012016E00D4BAA
S214080B809847012012E004F0605204F00103009335
S214080B90C4F38003B2F1605F14BF0022012231461D
S214080BA02846054CA047012000E0002002B070BD92
S214080BB0A5090800E5090800190A08002DE9F0410A
S214080BC0044688460E4B9847054620460D4B9847E0
S214080BD0054013D00C4C04F160062368434508D141
S214080BE06168294205D0E36840469847636825EA65
S214080BF00305B44202D01034002DEED1BDE8F081D2
S214080C00410A0800450A08004807002008B50A21D6
S214080C100148024B984708BD000C0E40BD0B080063
S214080C2008B50B210148024B984708BD000E0E4038
S214080C30BD0B080008B50C210148024B984708BDB3
S214080C4000100E40BD0B0800184A136B23F0700303
S214080C5018431063936E13F0080F03D009E0013BA6
S214080C6003D11EE04FF4006310498A6E12F0080F95
S214080C70F5D00E4A136B23F0030343F00203136305
S214080C80906E10F0080004D000207047013B03D196
S214080C9009E04FF4006305498A6E12F0080FF5D094
S214080CA07047012070470120704700BF00040E40BF
S214080CB0084A136A23F0030343F45C1343F0010362
S214080CC0000280B203431362936E13F0010FFBD049
S214080CD0704700BF00040E40024B986E00F00100FB
S214080CE0704700BF00040E40024B986E00F4803038
S214080CF0704700BF00040E40064B1B6A10B143F055
S214080D00807301E023F0807343F45C13014A136296
S214080D10704700BF00040E404FF00052014B9A6225
S214080D20704700BF00040E40024B986E00F00200A9
S214080D30704700BF00040E401D280ED81F280ED886
S214080D40094B9A690123834093430AD0012303FA87
S214080D5000F0054B186100207047012070470020FE
S214080D6070470020704700BF00040E40FEE700BF33
S214080D7008B51E4B1E4A9A4203D01E4B1B4A9A427F
S214080D8004D31D4B1D4A9A420FD31AE017491C4B31
S214080D905B1A23F003030433154A134452F8040B72
S214080DA041F8040B9A42F9D1EBE7164B164AD21AC9
S214080DB022F003021A44043B002143F8041B934222
S214080DC0FBD1124B23F0604222F07F0210498A6062
S214080DD003F16043B3F5404F03D28B6843F00053EA
S214080DE08B600C4B98470C4B9847FEE7000000209A
S214080DF0AC1C08004C050020E80D00204C0500201F
S214080E004B05002050050020EB0D002000000800D0
S214080E1000ED00E0A9120800D91008003E4B1B6B35
S214080E2003F00303032B5FD8DFE803F0020E2B2B37
S214080E303A4B5B6913F0800F14BF4FF400424FF42F
S214080E40FA42374B1A604FE0334B1B6A13F0807F29
S214080E5003D0344A324B1A6046E0334A304B1A60A5
S214080E602D4B1B6A03F07003102B02D0202B04D0E6
S214080E703AE02E4A2A4B1A6036E02A4A284B1A606D
S214080E8032E0254B1B6A13F0807F03D0254A244B9B
S214080E901A6012E0244A224B1A601F4B1B6A03F0A2
S214080EA07003102B02D0202B04D006E01F4A1C4BE0
S214080EB01A6002E01B4A1A4B1A60174B1B6B03F0AA
S214080EC00303022B0DD1144A936A926A1448C3F39B
S214080ED00A41036801FB0333D2B2B3FBF2F30360A3
S214080EE002E0134A0E4B1A600B4B1B6B03F07003A1
S214080EF0702B07D10A4A13680E49A1FB03135B0837
S214080F0013607047044B1B6B0549C3F302120B684A
S214080F10D3400B60704700BF00040E4010120E400E
S214080F2018010020001BB70000093D0000127A00D7
S214080F30001C4E0EABAAAAAA024A13680133136015
S214080F40704700BFB8070020544B0021544A23F8C6
S214080F50021F9342FBD12DE9F04FADF5E14D85B068
S214080F60002303934F4E504D504B039A1A600DF5CD
S214080F70DD4808F130080DF5DB4440340DF5DD4A50
S214080F800AF12E0ADFF83C91C8478346C84708F19D
S214080F9001081BEA060B05D50BF1FF3B6BF0FF0BB0
S214080FA00BF1010B88F800B0013410EA060303D5EC
S214080FB0013B63F0FF03013323705445E4D10DF180
S214080FC0FF090DF5DD4A0AF12F0A1BE011F801BFEB
S214080FD018F8013F9B441CF8013F5B441EF801BF0C
S214080FE09B4414F8013F5B4485FB037BDB43DB0F24
S214080FF0C3EB6B0300F8013F013AE7D109F1F009AA
S214081000D1450CD009F1020809F1F10C09F1010EDD
S21408101009F2E114A9F1EF004946EE22D6E70DF1F0
S2140810200F042348DFF8A080DFF8A0C0DFF8A0E0B0
S21408103014F8012F38F812103CF812301B0203EB94
S21408104001433EF8122013441A0A22F4FF6222F0E3
S21408105007015A0902F4FC620A43C3F3C4031343A4
S21408106020F8023F134B9842E2D1104B1868124CF6
S2140810700A222146114B98474FF0C04300934FF47D
S214081080A073F02200210846DFF84880C0472246B1
S21408109014210A200A4B984766E700BFFEFFFF5F49
S2140810A0BE890160FF00008067666666B807002094
S2140810B0FE760160FE570260C80D0020291308005E
S2140810C0B10508002D130800BC0B0020BC09002041
S2140810D0BC0700205D0608002DE9F843574B9847E3
S2140810E0574B9847574B1B68574AA2FB03239B0945
S2140810F0013BB3F1807F3BD2544A5360F021544BF6
S21408110083F8231000249460072313600920514BAA
S2140811109847514D514A21462846DFF88491C847DA
S2140811204FF0063221462846DFF87881C0474FF050
S2140811300812214628464A4FB84741F2030221467C
S2140811402846484EB047484A02212846C847474AD4
S21408115002212846C047464A02212846B84741F297
S214081160030202212846B04723464248214600E0AB
S214081170FEE70268D1540133B3F5963FF9D13E4EE7
S2140811803E4D3F4C4FF6C0714FF680700022134616
S2140811904FF47F4E4FF4004817464FF4604C1F2B11
S2140811A006DC4FEA0229A6F800902F8027801DE06B
S2140811B03F2B07DCA6F800C04FEA0029A4F80090E9
S2140811C02F8013E05F2B0BDC03F1A0094FEA0929F7
S2140811D0A6F800904FEA0129A4F800902F8005E0B1
S2140811E0A4F800E0A6F800E0A5F80080013307326E
S2140811F092B2023602350234043080B2033189B224
S214081200B3F5807FCBD11F4CF02323604FF4A07337
S2140812106360002323814FF6FF7565811A4B984754
S21408122020461A4B98471920194B9847194B984748
S2140812302846194B9847194B984700BF0D070800D2
S2140812408907080018010020D34D621010E000E05E
S21408125000ED00E0390D080000000E400002020212
S214081260F1060800FD060800010109090404242403
S2140812700A002D001C010020BC0B0020BC07002023
S214081280BC090020BC0D0020710108008903080075
S2140812901901080079020800B9020800490F080079
S2140812A0D9060800E506080070B50F4E0F4D761BE8
S2140812B0B61018BF002405D0013455F8043B9847EB
S2140812C0A642F9D10A4E0B4D00F0DEFC761BB6108E
S2140812D018BF002406D0013455F8043B9847A642A8
S2140812E0F9D170BD70BD00BF941C0800941C08009E
S2140812F09C1C0800941C0800931E222B10D80A2A4F
S21408130010B506D000230C46194400F02FF82046E6
S21408131010BD0028F6DA2D230B7040420123F2E7B1
S21408132000200870704700BFFFF7E6BF30B40C4BCC
S2140813300C4C19680C4DD1F8A820D1F8AC0004FB69
S21408134002F4A2FB052305FB00400132034443F1E7
S2140813500003C1E92A2323F0004030BC704700BFD1
S214081360480500202DF451582D7F954CF0B58BB0CC
S2140813706F461546DFF870E004460E46BEE80F00D6
S2140813800FC7BEE80F000FC79EE80300AB1E47F85E
S214081390040B222B397022D8711E0846002300E061
S2140813A01346B4FBF5F205FB12440AAF3C4414F8A6
S2140813B0287C144600F8017F5A1C002CF0D1B4543F
S2140813C0F2184BB1013411F8015F1778181B8442E4
S2140813D00F7002F80159F5DB30460BB0F0BD00205F
S2140813E030700BB0F0BD00BF601C0800024B13B194
S2140813F0024800F005B87047000000000D14080009
S214081400002301461A46184600F014B838B5074DAA
S214081410074C2C1BA41005D0013C55F8043D9847F2
S214081420002CF9D1BDE8384000F038BCAC1C0800E8
S214081430A81C08002DE9F047254C0646256888466E
S214081440D5F8484192469946C4B360681F2817DC09
S214081450411C76B104EB8003C3F888A0D4F8885101
S214081460012282401543022EC4F88851C3F8089119
S2140814701ED0831C6160002044F82380BDE8F087F6
S214081480144B03B34FF4C870AFF300800446D0B1D2
S214081490D5F84831002784E888003846C5F848411A
S2140814A00121C4F88871C4F88C71002EE1D0D1E708
S2140814B0D4F88C311A43C4F88C21DAE705F5A674FB
S2140814C0C5F84841C1E74FF0FF30BDE8F08700BFD8
S2140814D05C1C08000000000000000000000000007F
S2140814E000000000000000000000000000000000EF
S2140814F000000000FFCCFFCC000000000000000049
S21408150000000000F000F00000000000F000F0000E
S214081510000000000CC00CC0FFFCFFFC0CC00CC098
S214081520FFFCFFFC0CC00CC00C601E703F30333054
S214081530FFFCFFFC333033F039E018C06000F00CD5
S214081540F03C60F003C00F003C18F03CC03C0018AC
S2140815503CF07FF8C31CC78CCFCCDCEC78783030F6
S21408156000FC00CC0000000000004400EC00F8007E
S2140815707000000000000000000000000FC03FF0F0
S21408158078786018C00CC00C00000000000000004E
S214081590C00CC00C601878783FF00FC00000000040
S2140815A00C600EE007C003803FF83FF8038007C0D2
S2140815B00EE00C6003000300030003003FF03FF05A
S2140815C00300030003000300004400EC00F800706A
S2140815D000000000000000000000000003000300F8
S2140815E003000300030003000300030003000300D6
S2140815F00018003C003C0018000000000000000036
S214081600000000000000000C003C00F003C00F00C3
S2140816103C00F000C00000003FF07FF8E0FCC1CCC2
S214081620C38CC70CCE0CFC1C7FF83FF000000000F3
S214081630300C700CFFFCFFFC000C000C00000000D7
S214081640300C701CE03CC07CC0ECC1CCC38CE70CF2
S2140816507E0C3C0C30307038E01CC00CC00CC30C40
S214081660C30CE31C7FF83CF003C007C00EC01CC0C8
S21408167038C070C0FFFCFFFC00C000C0FC30FC385F
S214081680CC1CCC0CCC0CCC0CCC0CCE1CC7F8C3F0A9
S2140816903FF07FF8E31CC30CC30CC30CC30CE39CDD
S2140816A071F830F0C000C000C000C000C3FCC7FC22
S2140816B0CE00DC00F800F0003CF07FF8E79CC30C96
S2140816C0C30CC30CC30CE79C7FF83CF03C007E00C0
S2140816D0E70CC30CC31CC338C370E7E07FC03F8069
S2140816E000000000000018603CF03CF018600000A5
S2140816F00000000000000000000018443CEC3CF825
S21408170018700000000000000000030007800FC0EB
S2140817101CE038707038E01CC00C00000CC00CC010
S2140817200CC00CC00CC00CC00CC00CC00CC00CC04C
S2140817300000C00CE01C703838701CE00FC0078032
S2140817400300000030007000E000C000C1ECC3ECED
S214081750C300E6007E003C0030F071F8E39CC30C42
S214081760C3FCC3FCC00CE01C7FF83FF03FFC7FFCCA
S214081770E0C0C0C0C0C0C0C0C0C0E0C07FFC3FFC66
S214081780FFFCFFFCC30CC30CC30CC30CC30CE79CC8
S2140817907FF83CF03FF07FF8E01CC00CC00CC00C93
S2140817A0C00CE01C70383030FFFCFFFCC00CC00CCE
S2140817B0C00CC00CC00CE01C7FF83FF0FFFCFFFC20
S2140817C0C30CC30CC30CC30CC30CC30CC00CC00C9A
S2140817D0FFFCFFFCC300C300C300C300C300C30074
S2140817E0C000C0003FF07FF8E01CC00CC00CC30C63
S2140817F0C30CE31C73F833F0FFFCFFFC0300030084
S2140818000300030003000300FFFCFFFC00000000C9
S214081810C00CC00CFFFCFFFCC00CC00C0000000095
S21408182000300038C01CC00CC00CC01CFFF8FFF00D
S214081830C000C000FFFCFFFC078007800FC01CE04C
S21408184038707038E01CC00CFFFCFFFC000C000C65
S214081850000C000C000C000C000C000CFFFCFFFC3D
S214081860700038001F001F0038007000FFFCFFFCE7
S214081870FFFCFFFC1C000E000700038001C000E010
S214081880FFFCFFFC3FF07FF8E01CC00CC00CC00C4F
S214081890C00CE01C7FF83FF0FFFCFFFCC300C30051
S2140818A0C300C300C300E7007E003C003FF07FF89B
S2140818B0E01CC00CC0CCC0ECC07CE0387FFC3FEC21
S2140818C0FFFCFFFCC300C380C380C3C0C3C0E7706F
S2140818D07E3C3C1C3C187E1CE70CC30CC30CC30C9B
S2140818E0C30CC39CE1F860F0C000C000C000C00094
S2140818F0FFFCFFFCC000C000C000C000FFF0FFF8FF
S214081900001C000C000C000C000C001CFFF8FFF07C
S214081910FFC0FFE000700038001C001C0038007094
S214081920FFE0FFC0FFF0FFF8001C003C00F800F8DE
S214081930003C001CFFF8FFF0F03CF87C1CE00FC0F1
S214081940078007800FC01CE0F87CF03CFC00FE0017
S2140819500700038001FC01FC03800700FE00FC0072
S214081960C03CC07CC0ECC1CCC38CC70CCE0CDC0C15
S214081970F80CF00C00000000FFFCFFFCC00CC00CCC
S214081980C00C000000000000300030000C000C0006
S2140819900300030000C000C0003000300000000054
S2140819A0C00CC00CC00CFFFCFFFC000000000000D0
S2140819B00C001C0038007000E000E00070003800E2
S2140819C01C000C00000C000C000C000C000C000C9A
S2140819D0000C000C000C000C00000000C000E0002A
S2140819E0700038001800000000000000003006787C
S2140819F00EFC0CCC0CCC0CCC0CCC0ECC07FC03F898
S214081A00FFFCFFFC030C030C030C030C030C039CE9
S214081A1001F800F003F007F80E1C0C0C0C0C0C0C6C
S214081A200C0C0E1C0738033000F001F8039C030C5E
S214081A30030C030C030C030CFFFCFFFC03F007F875
S214081A400EDC0CCC0CCC0CCC0CCC0EDC07D80390E3
S214081A50000003003FFC7FFCE300E300700030005A
S214081A60000000000318079C0FCC0CCC0CCC0CCC48
S214081A700CCC0CDC0FF807F0FFFCFFFC030003009F
S214081A8003000300038001FC00FC000000000000C7
S214081A90000000001BFC1BFC00000000000000000B
S214081AA0000000300038001C000C000C001CCFF8AA
S214081AB0CFF000000000FFFCFFFC00E001E003F0B0
S214081AC007380E1C0C0C000000000000C00CC00CF0
S214081AD0FFFCFFFC000C000C000000000FFC0FFCD5
S214081AE00E00070003C003C007000E000FFC0FFC23
S214081AF00FFC0FFC030007000E000C000C000E0085
S214081B0007FC03FC03F007F80E1C0C0C0C0C0C0C62
S214081B100C0C0E1C07F803F00FFC0FFC0CC00CC0D6
S214081B200CC00CC00CC00FC0078003000300078061
S214081B300FC00CC00CC00CC00CC00CC00FFC0FFCB7
S214081B400FFC0FFC038007000E000C000C000E00B4
S214081B50070003000318079C0FCC0CCC0CCC0CCC4D
S214081B600CCC0CFC0E78063000000C000C00FFF0C5
S214081B70FFF80C1C0C1C0C380C3000000FF00FF88B
S214081B80001C000C000C000C000C001C0FF80FF0DA
S214081B900FC00FE000700038001C001C00380070F2
S214081BA00FE00FC00FF00FF8001C001C00F800F83C
S214081BB0001C001C0FF80FF00C0C0E1C073803F066
S214081BC001E001E003F007380E1C0C0C0C000E00B8
S214081BD0070C039C01F801F0038007000E000C00B8
S214081BE00C0C0C1C0C3C0C7C0CEC0DCC0F8C0F0C51
S214081BF00E0C0C0C0000030007803FF07CF8E01C7D
S214081C00C00CC00CC00C0000030C030C3FFC7FFC8F
S214081C10E30CC30CC00CE00C700C300C0000C00CBD
S214081C20C00CC00CE01C7CF83FF0078003000000E6
S214081C30C000C000C000C000C000C000C000C00097
S214081C40C000C000FFFCFFFCFFFCFFFCFFFCFFFC25
S214081C50FFFCFFFCFFFCFFFC430000002001002007
S214081C603031323334353637383961626364656605
S214081C706768696A6B6C6D6E6F707172737475766F
S214081C807778797A00000000F8B500BFF8BC08BC81
S214081C909E467047ED130800E1000800F8B500BF3F
S210081CA0F8BC08BC9E467047BD00080053
S214081CAC4FF48063214A136002F50072136003F147
S214081CBC804303F560231B6A13F0807F07D11C4A08
S214081CCC1C4B1A621A46936E13F0010FFBD01A4A75
S214081CDC184B1A621A46936E13F4803FFBD0154ABB
S214081CEC136B23F0030343F001031363936E13F093
S214081CFC080FFBD0114A0F4B9A621A46936E13F0D4
S214081D0C020FFBD011220B4B1A631A46936E13F074
S214081D1C080FFBD01222074B1A631A46936E13F061
S214081D2C080FFBD0064A074B1A60704700080E408F
S214081D3C0908370000040E4009083701013F0F2038
S214081D4C00D8B80518010020164B984206D8002370
S214081D5C154A136002F5007213607047134B9842CD
S214081D6C07D84FF48073104A136002F5007213609C
S214081D7C70470F4B984207D84FF400730A4A136003
S214081D8C02F50072136070470A4B984294BF4FF4E2
S214081D9C40734FF48063044A136002F500721360B4
S214081DAC704700BFFF356E0100080E40FF596202EF
S214081DBCFFA14A04FFBC010500093D0000000560B0
S214081DCC000000000C04002074040020DC04002032
S214081DDC00000000000000000000000000000000EA
S214081DEC00000000000000000000000000000000DA
S214081DFC00000000581C080000000000000000004E
S214081E0C00000000000000000000000000000000B9
S214081E1C00000000000000000000000000000000A9
S214081E2C0000000000000000000000000000000099
S214081E3C0000000000000000000000000000000089
S214081E4C0000000000000000000000000000000079
S214081E5C0000000000000000000000000000000069
S214081E6C0000000000000000010000000000000058
S214081E7C0E33CDAB34126DE6ECDE05000B0000001D
S214081E8C0000000000000000000000000000000039
S214081E9C0000000000000000000000000000000029
S214081EAC0000000000000000000000000000000019
S214081EBC0000000000000000000000000000000009
S2100821EC00000000000000002001002099
S804080D7175
