:0200000280007C
:1000000000400820D51E0800D11E0800D11E08009F
:10001000D11E0800D11E0800D11E080000000000FB
:10002000000000000000000000000000D11E0800D9
:10003000D11E080000000000D11E08005D0208006B
:10004000D11E0800D11E0800D11E0800D11E0800D4
:10005000D11E0800D11E0800D11E0800D11E0800C4
:10006000D11E0800D11E0800E5170800F917080086
:100070000D180800D11E0800D11E0800D11E08006E
:10008000D11E0800D11E0800D11E0800D11E080094
:10009000D11E0800D11E0800D11E0800D11E080084
:1000A000D11E0800D11E0800D11E0800D11E080074
:1000B000D11E0800D11E0800D11E080010B5054C45
:1000C000237833B9044B13B10448AFF30080012304
:1000D000237010BDAC090020000000008C5C0800FB
:1000E000084B10B51BB108490848AFF30080084819
:1000F000036803B910BD074B002BFBD0BDE81040CF
:10010000184700BF00000000B00900208C5C080008
:100110008C5C080000000000F0B583B004460D467A
:10012000002301931F4B984207D11F461E4E2946BC
:100130003846B0470028FAD119E01C4B984209D143
:100140001F461B4E01A93846B0470028FAD1019B33
:100150002B7019E0174B984209D11E46144C01A987
:100160003046A0470028FAD1019B2B7018E0124BB3
:100170009C4209D11E460E4C01A93046A0470028DA
:10018000FAD1019B2B700BE00C4B9C4208D11E4610
:10019000074C01A93046A0470028FAD1019B2B70DB
:1001A00003B0F0BD00060E403D1B080000000940F2
:1001B000651B0800004009400080094000C009405C
:1001C00070B50C461E4B984208D11E461D4D214667
:1001D0003046A8470028FAD1012070BD1A4B98423A
:1001E00008D11E46194D21463046A8470028FAD1AD
:1001F000012070BD164B984208D11E46134D214672
:100200003046A8470028FAD1012070BD114B984212
:1002100008D11E460D4D21463046A8470028FAD188
:10022000012070BD0C4B984208D11E46074D214657
:100230003046A8470028FAD1012070BD002070BDCB
:1002400000060E402D1B080000000940511B08004D
:10025000004009400080094000C0094008B5084B33
:100260001A6801321A601A68064BA3FB0213DB08F6
:1002700003EB8303B2EB430F01D1034B984708BD57
:10028000C8090020CDCCCCCC811D080010B54FF49E
:100290007F40044B98474223E82208210846024C3D
:1002A000A04710BD0D0E08003111080010B54FF425
:1002B0007F40244B9847244A6C211A20234CA047A6
:1002C000234A6C215420A047224A6C218E20A0474B
:1002D000214A6C21C820A047204AA6211A20A04705
:1002E0001F4AA6215420A0471E4AA6218E20A047BF
:1002F0001D4AA621C820A0471C4AE0211A20A04779
:100300001B4AE0215420A0471A4AE0218E20A04732
:10031000194AE021C820A047184A4FF48D711A20CD
:10032000A047174A4FF48D715420A047154A4FF447
:100330008D718E20A047144A4FF48D71C820A047BC
:1003400010BD00BF0D0E080054520800E91108004E
:10035000585208005C5208006052080064520800BD
:10036000685208006C52080070520800745208006D
:10037000785208007C52080080520800845208001D
:10038000885208008C5208009052080038B5FF20AF
:10039000304DA8478C233A225A2108202E4CA047E2
:1003A0008C2374225A214220A0478C23AE225A214A
:1003B0007C20A047C6233A2294210820A047C623C8
:1003C000742294214220A047C623AE2294217C208F
:1003D000A0474FF480733A22CE210820A0474FF463
:1003E00080737422CE214220A0474FF48073AE2246
:1003F000CE217C20A0474FF49D7374224FF484716A
:100400004220A0470020A8478C23E8225A21B6208A
:10041000A047C623E8229421B620A0474FF480735A
:10042000E822CE21B620A0474FF49D73E8224FF476
:100430008471B620A0474FF49D73AE224FF48471AF
:100440007C20A0474FF49D733A224FF4847108201A
:10045000A04738BD0D0E08003111080010B54FF44B
:100460007F40084B984740F23F13EF220021084697
:10047000054CA047054B9847054B9847054B9847B7
:1004800010BD00BF0D0E0800311108008D020800DC
:100490008D030800AD0208000A4B1B6813B1012B45
:1004A00008D07047084A136803EB830300EB43004E
:1004B00010607047054A136803EB830300EB4300A9
:1004C00010607047D4090020CC090020D00900201A
:1004D000174B1B68013B032B29D8DFE803F0020B05
:1004E000151F14490B68144A106803440B6000235D
:1004F000136070470F490B680F4A1068A3EB0003A5
:100500000B600023136070470A490B680A4A1068A1
:1005100003FB00F30B6000231360704705490B6871
:10052000054A106893FBF0F30B60002313607047DB
:1005300018010020CC090020D009002008B50F28A0
:100540005FD8DFE800F0080C10141B1F23272E32A1
:10055000363A414C505907202A4B984708BD08208D
:10056000284B984708BD0920264B984708BD032211
:10057000254B1A600122254B1A6008BD0420214B2F
:10058000984708BD05201F4B984708BD06201D4B06
:10059000984708BD04221C4B1A6001221B4B1A60AD
:1005A00008BD0120174B984708BD0220154B9847FE
:1005B00008BD0320134B984708BD0222124B1A6056
:1005C0000122124B1A6008BD01220F4B1A60002352
:1005D0000E4A13600E4A13600E4A136008BD0020D5
:1005E000084B984708BD0C4B98470122064B1A60F0
:1005F0000022064B1A6008BD0123034A1360034A18
:10060000136008BD9904080018010020D4090020D7
:10061000CC090020D0090020D104080000B587B023
:10062000A0F10803322B0DD9A0F14203322B0BD9D4
:10063000A0F17C03322B09D9B638322894BF0323AA
:10064000002304E0002302E0012300E00223A1F1E3
:100650005A02322A0ED9A1F19402322A0CD9A1F100
:10066000CE02322A0AD9A1F58471322994BF03201F
:10067000002004E0002002E0012000E0022003EB63
:100680008000154B9847154B9847FF20144B98470F
:100690000023019302930393049305930A2201A973
:1006A000104B1868104B984701AA142108460F4BAD
:1006B00098470F4B1B68012B0AD10A2201A90D4B49
:1006C0001868094B984701AA28211420074B98471E
:1006D00007B05DF804FB00BF3D0508008D0208006F
:1006E0000D0E0800CC090020A1220800E911080025
:1006F000D4090020D009002010B504460378012B4E
:1007000003D043B1022B10D010BD828841880A4823
:100710000A4B984710BD81884088094B9847A288AA
:1007200061880848054B984710BD82884188064873
:10073000024B984710BD00BF9452080049220800A0
:100740001D060800B4520800D4520800F0B585B068
:100750004D4B98474D4B984708204D4DA8474D4C61
:100760004D4B1C604D4A4E4B1A604E4A4E4B1A6020
:100770004E4B01934FF4E13302934FF40063039324
:100780000820A84701A92046494B9847494E33689D
:1007900000219868484CA047336800215868A0475A
:1007A0000A20A8470B20A8470C20A8474348444CE0
:1007B000A0474448A047444B444A5A60F026444A64
:1007C00082F8236000249C6007221A60414B9847FE
:1007D0000920A847404D414A02212846404B9847EE
:1007E000404A02212846404B9847404A0221284669
:1007F0003F4B984741F20302022128463D4B984760
:1008000001964FF4A0750295ADF80C404FF6FF77B6
:10081000ADF80E7001A8384B98473846374B9847CB
:100820002B46324621462046354FB847354B984730
:100830002020354B984722460A213448344FB84788
:1008400022460B213348B84722460C213248B8478C
:1008500029463046314B9847314B98473148324B07
:100860009847324E324D164CB047C0B240B931486D
:10087000134B9847304A314B1A60314B984702E08E
:100880002846A047F0E7FEE7450908004D0B0800A1
:100890009119080000060E40B40C0020C1010800A8
:1008A000B00C002019010800AC0C002000D8B805DD
:1008B000F51A080070050020B9230800F45208005A
:1008C000A92308004C53080010E000E0FF76010067
:1008D00000ED00E0C50C080000000E400101090910
:1008E0002914080004042424351408000A002D00EB
:1008F000411408004D140800DD0E08000D0E08001C
:1009000031110800CD0D08006D0C0800000C0E40E0
:1009100021180800000E0E4000100E40351C080083
:10092000891C0800F9060800751D0800ED20080064
:10093000985308007C530800CC090020A80C002024
:100940005D04080010B51248124B98473E20124B28
:100950009847124CA0470028FCD04FF08070104BF5
:100960009847104CA0470028FCD00F4B98470F4ADF
:100970000F4B9A620F4CA0470028FCD010200E4B62
:1009800098470E4B98470248024B984710BD00BF4E
:1009900000D8B805A900002009190800311908007D
:1009A000511908004119080071190800013F0F2072
:1009B00000040E4081190800A1180800811F0800DA
:1009C00010B50446104B984780232360636843F0BA
:1009D00001036360636843F010036360636823F09E
:1009E0008003636000212046084B9847636823F02A
:1009F00002036360636823F0040363600021204600
:100A0000034B984710BD00BFC5190800D519080051
:100A1000ED1908002DE9F04104460D46164615492A
:100A20001846154B9847074600231A462968204662
:100A3000DFF85C80C0470822296820460F4B9847A2
:100A4000FAB2296820460E4B9847082229682046AA
:100A50000C4B98477208296820460B4B984786F044
:100A6000010202F0010229682046084B9847BDE8C0
:100A7000F08100BF00D8B805991A0800851A08004F
:100A8000B11A0800411A0800011A0800211A0800CA
:100A9000D91A080008B5436813F0040F05D0096897
:100AA0000F290AD8054B984708BD0B68032B04D8BB
:100AB00001219940C943014B984708BDD519080049
:100AC00090B92DE9F0410C469046002A0FDD8F18B1
:100AD000084E094D306821462B6898470134A742DB
:100AE000F8D14046BDE8F0814FF0FF30704700205C
:100AF000BDE8F081B40C0020AC0C002001380228C5
:100B000015D82DE9F0410E4614469AB10D46DFF88E
:100B100038800C4FD8F8000015F8011B3B68984747
:100B200000280ADBA81B013CF4D1BDE8F0814FF09E
:100B3000FF3070470020BDE8F0814FF0FF30BDE886
:100B4000F08100BFB00C0020B40C002070B54FF451
:100B500000423D4B5A600A203C4CA0470B20A04766
:100B60000C20A0474FF060512020394CA0474FF097
:100B700060512120A04737491220A0473649132051
:100B8000A0474FF000624FF4C0513448344B9847AF
:100B9000344D29462920A04729462A20A047294626
:100BA0002B20A04729462C20A04729462D20A047CE
:100BB00029462E20A04729462F20A047294630202D
:100BC000A04729463920A04729463A20A047294670
:100BD0003B20A04729463C20A04729463D20A0476E
:100BE00029463E20A04729463F20A0471E4E3146B9
:100BF0002620A04729463320A04729463720A04772
:100C000029465020A04731462820A0474FF04051A8
:100C10005320A04705F1005529461820A047294632
:100C20000220A0474FF000610D20A0474FF0006167
:100C30000E20A0474FF000610F20A0474FF08051D9
:100C40004E20A04770BD00BF50120E409119080001
:100C50003D1508007300002853000028000C0E40CA
:100C600011160800010000080100001070B483B0E4
:100C7000202828BF2020002808BF01200021104E76
:100C80004FF40025182475630194019B5A1E0192AC
:100C9000002BFAD135630194019B5A1E0192002B5F
:100CA000FAD101318142EED34FF400330193019B1D
:100CB0005A1E0192002BFAD103B070BC704700BFDE
:100CC00000100E4082B04FF40022064B5A634FF4DE
:100CD00000330193019B5A1E0192002BFAD102B0FE
:100CE000704700BF00100E4082B000230193019BAB
:100CF000984211D90021094A0191019B934205D8DC
:100D0000019B01330193019B9342F9D9019B01336C
:100D10000193019B8342EFD302B070479F8601008D
:100D200030B40468EF2C84BFEF2404601468EF2C07
:100D300084BFEF2414600C68B4F5A07F24BF40F298
:100D40003F140C601C68B4F5A07F24BF40F23F1430
:100D50001C6004681568AC4284BF056014600A68B2
:100D60001868824284BF08601A6030BC704700BFB8
:100D700070B431F0070618D003460024124A30F848
:100D8000145015805D8815809D881580DD8815803C
:100D90001D8915805D8915809D891580DD891580E7
:100DA00008341033B442EAD300E00024A14209D948
:100DB00000EB440400EB4100034A34F8023B13808B
:100DC0008442FAD170BC704702000062F8B54FF05F
:100DD000C44590232B800B4C7F23238026262E8016
:100DE000042323806420084FB8472E8024232380C7
:100DF0002E802C2323806420B8472E803C23238020
:100E0000F8BD00BF02000062E90C0800044A931E0E
:100E100002F5EF7223F8020F9342FBD1704700BF37
:100E2000D8090020F0B5C7B2CEB2C0F3072E4FF0FC
:100E3000C44502242C8004F1C444A4F800E01FFA45
:100E400087FE4FF0030CA5F800C0A4F800E0C1F342
:100E5000072E4FF0060CA5F800C0A4F800E01FFA1A
:100E600086FE4FF0070CA5F800C0A4F800E002F1E0
:100E7000FF3E7044C0F307204FF0040EA5F800E0D9
:100E80002080013A3A44D2B20520288022805A1E9E
:100E90001144C1F3072108222A802180013B3344F9
:100EA000DBB209222A802380F0BD00BF30B4050ADE
:100EB0000C0A4FF0C4420223138003F1C4431D8087
:100EC000C0B2032515801880062010801C80C9B28E
:100ED00007201080198030BC704700BF2DE9F84F03
:100EE00067224FF0C4431A8002331B889BB2472B02
:100EF00040F0DD8007464FF0C44519232B806D4C30
:100F00004FF0490AA4F800A093232B800C232380E0
:100F100044232B804FF04D03238045232B804FF03B
:100F20001109A4F8009020232B804FF0400BA4F867
:100F300000B01D232B804FF0070323801E232B803E
:100F4000002626801F232B804FF00408A4F8008081
:100F50001C232B80A4F800801B232B8010232380CC
:100F60003220554B984743232B8080232380322007
:100F7000514B984746232B809521218047222A8078
:100F800051222280482028802680A5F800A0362003
:100F900020804A202880A4F800904B2028806620DA
:100FA00020804C2028804FF0140EA4F800E04FF071
:100FB0004D0EA5F800E04FF0770EA4F800E04FF0DA
:100FC0004E0EA5F800E04FF0130EA4F800E04FF02D
:100FD0004F0EA5F800E020805020288023802A8032
:100FE000238002232B80268003232B802680A5F8D4
:100FF0000080268005232B80EF23238006232B806F
:1010000026804FF007022A80268008222A800122AB
:101010002280092028803F2020802A8023801620DB
:101020002880C82020802320288021802420288018
:10103000218025212980FF212180272129802380CB
:101040002821298023802921298023802A21298081
:1010500023802C21298023802D21298023803A235D
:101060002B8022803B232B8022803C232B80F0236B
:1010700023803D222A8026803E222A803822228018
:10108000A5F800B00F22228041222A8023807B68AD
:101090003A6831463046094CA0473889084B984792
:1010A00031463046074B98473046BDE8F88F01205F
:1010B000BDE8F88F02000062E90C0800250E080068
:1010C0000D0E0800AD0E080010B5044600210846BC
:1010D000064B984722224FF0C4431A804FF49633B0
:1010E000034A1480013BFCD110BD00BFAD0E0800C7
:1010F00002000062EF2811D8B1F5A07F10D208B528
:1011000089B280B2074B984722224FF0C4431A801D
:10111000054B1A88054B1A80002008BD0120704736
:1011200001207047AD0E0800D809002002000062BF
:101130002DE9F04184B003900291019204AA42F893
:10114000103D134601AA02A903A8214CA047039809
:101150000299009B0133019A01325B1A121A1D4C4D
:10116000A047BDF80810BDF80C001B4B9847222281
:101170004FF0C4431A80039A019B9A1A009B03F113
:101180000108029BC3EB080802FB0888134CA4FB70
:101190000834E40907D0124FF026124D3146384684
:1011A000A847013CFAD10D49A1FB0831C909C1EB9F
:1011B0000111A8EB01110A480A4B98474FF4A0739C
:1011C000F02200210846034CA04704B0BDE8F0819E
:1011D000210D0800250E0800AD0E080089888888BA
:1011E000D8090020710D08002DE9F04F85B003905B
:1011F00002921378002B45D08A460190DFF8908048
:101200000A2B04D10AF1100A039B019334E003EB8B
:1012100083031E4E06EB8303A3F27F26019F3B460A
:101220000A3300930AF107090724B3465D4616F80E
:10123000013C234113F0010F03D0C4EB09013846F0
:10124000C047013CB4F1FF3FF0D107240AF10F0B76
:101250002B78234113F0010F03D0C4EB0B01384668
:10126000C047013C012CF3D102360137009BBB4241
:10127000DAD1019B0C330193029A12F8013F0292DA
:10128000002BBDD105B0BDE8F08F00BFEC530800C6
:10129000F510080084B000238DF808308DF809306F
:1012A0008DF80A308DF804008DF805308DF8063081
:1012B0000393039B022B03D916E0013B03D138E0D3
:1012C0001E4943F699230A6912F0020FF5D0039BD9
:1012D00004AA134413F80C3CDBB2CB60039B01332C
:1012E0000393039B022BECD900230393039B022B54
:1012F00003D916E0013B03D11DE0104943F69923C1
:101300000A6912F0010FF5D08A68D2B2039B04A8D3
:10131000034403F8082C039B01330393039B022B24
:10132000ECD99DF809009DF80A3043EA0020000935
:1013300002E0012000E0012004B07047008000407E
:10134000034BD86B80F08070C0F30060704700BF23
:10135000000C0E4008B5024603491820034B98477D
:101360001820034B984708BD010000289D1708006E
:10137000B116080008B51820014B984708BD00BFFA
:10138000B116080070B506460D461820074B984761
:10139000D320074CA04730609320A04728609020BE
:1013A000A0471820034B984770BD00BFCD1608001A
:1013B00095120800B1160800F0B585B004AD0223FF
:1013C00045F8083D114C2046114B984700260096E1
:1013D000104B3246294620460F4FB8472946204633
:1013E0000E4B9847012323600396039A0C4B9A42B5
:1013F00006D81A46039B01330393039B9342F9D902
:101400009020084B9847002005B0F0BD00800040B8
:10141000C109080040420F00150A0800950A08009B
:101420009F8601009512080001EB810100EB81000D
:101430000267704701EB810100EB81004267704752
:1014400001EB810100EB81008267704701EB8101B4
:1014500000EB8100C0F88020704700BF4264B1F10A
:10146000805F16D004D8C1B1B1F1006F0AD013E08B
:10147000B1F1405F11D0B1F1605F0ED0B1F1205FEA
:101480000AD17047016F036F0B4023EA0203036721
:1014900002E0036F1343036742607047416412F038
:1014A000010F14BF4166016612F00A0F14BF0162FA
:1014B000416212F0020F02D0C0F8801004E012F076
:1014C000080F18BFC0F8841041610160704700BF69
:1014D00010B44164019C0CB1416600E001660BB19F
:1014E000016500E041650AB1016300E0416301610B
:1014F000016010BC704700BF12F0100F10D0C0F890
:10150000B01012F0200F14BFC0F8D410C0F8D010E3
:1015100012F0400F14BFC0F8C010C0F8C4107047DC
:10152000C0F8B410704700BFC36C0164704700BFBF
:1015300041647047C06C7047806C704770B582B072
:101540000D46430903F5001303F206735C0201F034
:10155000F043B3F1205F30D006D8B3F1006F0AD06A
:10156000B3F1805F18D049E0B3F1405F30D0B3F100
:10157000605F2DD042E000F01F0001268640324619
:101580004FF0006120461F4B984715F0010F14BF24
:1015900066662666012032E000F01F0001268640C4
:1015A00032464FF080512046164B984715F0010FF8
:1015B00014BF66662666012021E000F01F010126A7
:1015C0002A4606FA01F120460F4B9847304616E0AE
:1015D00005F0605200F01F01012605EA06030093A2
:1015E000C5F38003B2F1605F14BF0022012206FA46
:1015F00001F12046054CA047304600E0002002B033
:1016000070BD00BF5D1408009D140800D1140800CF
:1016100070B582B005460E46144602F0F043B3F1B1
:10162000205F26D006D8B3F1006F0AD0B3F1805FF7
:1016300013D034E0B3F1405F1FD0B3F1605F1CD032
:101640002DE00A464FF00061164B984714F0010F49
:1016500014BF6E662E66012022E00A464FF08051CC
:10166000104B984714F0010F14BF6E662E660120D0
:1016700016E00D4B9847012012E004F0605204F090
:1016800001030093C4F38003B2F1605F14BF002232
:10169000012231462846054CA047012000E00020E9
:1016A00002B070BD5D1408009D140800D11408003C
:1016B000430903F5001303F206735B0200F01F00F9
:1016C000012202FA00F01864704700BF430903F5D5
:1016D000001303F206735B0200F01F00012202FAFE
:1016E00000F05864704700BF400900F5001000F298
:1016F00006704002704700BF40090A30704700BFC3
:1017000000F01F00012303FA00F070472DE9F041BB
:10171000044688460E4B9847054620460D4B984791
:10172000054013D00C4C04F160062368434508D1F2
:101730006168294205D0E36840469847636825EA16
:101740000305B44202D01034002DEED1BDE8F08183
:101750003515080039150800BC0B0020F8B50C4CF5
:101760002468062C11D815460A4F2601BA19B9511A
:10177000556093600699D1600134054A14601A4699
:101780002946054B98470020F8BD0120F8BD00BF51
:10179000B80B0020BC0B0020F91408002DE9F04123
:1017A00082B004460F4690460A4B984705462046AD
:1017B000094B984706462046084B9847CDF80080CD
:1017C0003B46024631462846054CA04702B0BDE8DC
:1017D000F08100BFE9160800F9160800011708009B
:1017E0005D17080008B50A210148024B984708BD5B
:1017F000000C0E400D17080008B50B210148024BE4
:10180000984708BD000E0E400D17080008B50C21C2
:101810000148024B984708BD00100E400D17080004
:10182000F8B505460C461746184B984706464FF044
:10183000FF312846164B98472846164B9847E2B288
:1018400002F01F030121994063099B0003F16043EB
:1018500003F56143C3F88010C3F88011002C06DA49
:1018600002F00F023F01FFB20B48875407E03F012F
:10187000FFB204F1604404F5614484F80073196018
:1018800031462846054B9847F8BD00BF391508007A
:10189000311508003515080014ED00E02915080081
:1018A000184A136B23F0700318431063936E13F000
:1018B000080F03D009E0013B03D11EE04FF40063A1
:1018C00010498A6E12F0080FF5D00E4A136B23F000
:1018D000030343F002031363906E10F0080004D07A
:1018E00000207047013B03D109E04FF40063054934
:1018F0008A6E12F0080FF5D0704701207047012062
:10190000704700BF00040E40084A136A23F0030327
:1019100043F45C1343F00103000280B203431362FB
:10192000936E13F0010FFBD0704700BF00040E4010
:10193000024B986E00F00100704700BF00040E409B
:10194000024B986E00F48030704700BF00040E40D8
:10195000064B1B6A10B143F0807301E023F08073E3
:1019600043F45C13014A1362704700BF00040E4049
:101970004FF00052014B9A62704700BF00040E40C6
:10198000024B986E00F00200704700BF00040E404A
:101990001D280ED81F280ED8094B9A6901238340B1
:1019A00093430AD0012303FA00F0054B186100208D
:1019B000704701207047002070470020704700BF2B
:1019C00000040E4008B51420014B984708BD00BF25
:1019D00091190800436823F47023436043680904A5
:1019E00001F470210B434360704700BF436823F04C
:1019F0007F434360436843EA01614160704700BF31
:101A000032B100EB8100036B43F0010303637047C5
:101A100000EB8100036B23F001030363704700BFF9
:101A200032B100EB8100036B43F0020303637047A4
:101A300000EB8100036B23F002030363704700BFD8
:101A4000042A0AD100EB8100036B23F0080303632F
:101A5000036B43F004030363704752B900EB81004A
:101A6000036B23F008030363036B23F00403036396
:101A70007047082A05D100EB8100036B43F008038F
:101A80000363704700EB81010B6B23F0F0030B63E2
:101A90000B6B1A430A637047431E1944B1FBF0F005
:101AA000431EFE2B94BF00B24FF0FF30704700BFC3
:101AB0006AB110B4144600EB81010B6B23F47F4331
:101AC0000B630A6B42EA04220A63002002E04FF033
:101AD000FF30704710BC704710B400EB8101086BF9
:101AE00080B208630C6B44EA036343EA02420A6370
:101AF00010BC704710B4AC2303600B684A68B3FB9A
:101B0000F2F31B095C1E4FF6FE7294420AD8036280
:101B10008B68436040F20223C0F8203150230360F9
:101B2000002000E0012010BC704700BF436913F0A3
:101B3000020F1ABFC161002001207047436913F0F2
:101B4000010F1DBF83690B7000200120704700BF8B
:101B5000436913F0020F1DBFC1F30801C1610020EA
:101B600001207047436913F0010F05D08369C3F367
:101B700008030B60002070470120704730B4144DFB
:101B80006C88EA884388D21A9202124B1B6892FB37
:101B9000F3F3E41A2A88AB8800881B1A9B020E48CC
:101BA000006893FBF0F3D31A23EAE3739BB20B4A6A
:101BB0001268934228BF13460B8024EAE4739BB259
:101BC000074A1268934228BF13464B8030BC7047C7
:101BD000380C00204C0C0020540C0020580C002025
:101BE0005C0C002008B50E4B984760B10D4B1B787C
:101BF00013F0FF0F13D10C4B1A680C4B1A60022222
:101C0000084B1A7008BD074B1B78DBB2012B06D1BD
:101C1000054B1A68064B1A600222024B1A7008BD67
:101C200041130800500C0020600C00202C0C0020F8
:101C3000300C002008B5034B1860034B1960034BB0
:101C4000984708BD580C00205C0C0020B913080010
:101C5000054A137813F0FF0FFBD1034A1378DBB268
:101C6000012BFBD1704700BF500C0020054A1378B0
:101C7000DBB2012BFBD1034A137813F0FF0FFBD12A
:101C8000704700BF500C002008B50448044B98472B
:101C9000044B98470122044B1A6008BDE51B08005D
:101CA0005513080075130800440C0020F0B583B0EC
:101CB000044681888389CB1A9A020588838A808B9F
:101CC000181A8602238A208B1B1A96FBF3F02389AD
:101CD000EB1A92FBF3F3034403EBD3735B10204A3C
:101CE0001360E788E38AFB1A9A02B4F802E0E389FA
:101CF000E08B181A86026389608B1B1A96FBF3F03F
:101D0000638AC3EB0E0392FBF3F3034403EBD37339
:101D10005B10144A1360144B1D809980A3F802E0F5
:101D2000DF8001A904F12400104B9847BDF804306E
:101D3000228C9B1A05330A2B0BD8BDF80630628C17
:101D40009B1A05330A2B04D80122094B1A60002084
:101D500003E00022064B1A60012003B0F0BD00BF73
:101D6000540C00204C0C0020380C00207D1B080077
:101D7000480C0020014B1860704700BF340C002055
:101D8000474B1B68002B00F08A8000B583B0454AA2
:101D9000136801331360444B9847002838D0434BF5
:101DA0001B6813F0FF0F11D0694601A8404B9847FC
:101DB0004048019BC380009B03813F4B42881A80AF
:101DC00082885A80811C06303C4B98473C4B1B78DC
:101DD000DBB2012B1CD1354B1B6813F0FF0F17D062
:101DE000354B1B88334A52889B1A05330A2B07D878
:101DF000314B5B882F4A92889B1A05330A2B07D9EF
:101E000001222C4B1A702F4B1B680BB129489847A5
:101E1000254B984700B3234B1A682B4B1A60284B6D
:101E20001B78DBB2022B37D11E4B1B68274A126886
:101E30009B1A062B30D90122214B1A7000221D4B10
:101E40001A701A4B1B6813F0FF0F25D01D4B1B682F
:101E500013B3184898471FE0124B1A681B4B1A60BF
:101E6000174B1B78DBB2022B16D10E4B1B68164AA0
:101E700012689B1A062B0FD90022114B1A700222EE
:101E80000C4B1A70094B1B6813F0FF0F04D00D4B5D
:101E90001B680BB10748984703B05DF804FB704717
:101EA000440C0020600C002041130800480C002066
:101EB00085130800640C0020400C00207D1B0800E6
:101EC000500C0020340C0020300C00202C0C002082
:101ED000FEE700BF08B51E4B1E4A9A4203D01E4BB8
:101EE0001B4A9A4204D31D4B1D4A9A420FD31AE053
:101EF00017491C4B5B1A23F003030433154A1344A0
:101F000052F8040B41F8040B9A42F9D1EBE7164B57
:101F1000164AD21A22F003021A44043B002143F865
:101F2000041B9342FBD1124B23F0604222F07F024C
:101F300010498A6003F16043B3F5404F03D28B68C8
:101F400043F000538B600C4B98470C4B9847FEE7CF
:101F5000000000208C5C0800AC090020BC0C0020B4
:101F6000AC090020AB090020B0090020BF0C002004
:101F70000000080000ED00E0F92108004D0708000E
:101F80003E4B1B6B03F00303032B5FD8DFE803F02A
:101F9000020E2B2B3A4B5B6913F0800F14BF4FF4EA
:101FA00000424FF4FA42374B1A604FE0334B1B6A42
:101FB00013F0807F03D0344A324B1A6046E0334A34
:101FC000304B1A602D4B1B6A03F07003102B02D0AC
:101FD000202B04D03AE02E4A2A4B1A6036E02A4AD7
:101FE000284B1A6032E0254B1B6A13F0807F03D028
:101FF000254A244B1A6012E0244A224B1A601F4BD8
:102000001B6A03F07003102B02D0202B04D006E0D3
:102010001F4A1C4B1A6002E01B4A1A4B1A60174BEE
:102020001B6B03F00303022B0DD1144A936A926ACF
:102030001448C3F30A41036801FB0333D2B2B3FB74
:10204000F2F3036002E0134A0E4B1A600B4B1B6B5A
:1020500003F07003702B07D10A4A13680E49A1FBE5
:1020600003135B0813607047044B1B6B0549C3F3F4
:1020700002120B68D3400B60704700BF00040E4093
:1020800010120E401C010020001BB70000093D008B
:1020900000127A00001C4E0EABAAAAAA094B1B68BC
:1020A00013B9094A074B1A60064B1B681A180749EF
:1020B000914204DB1046034A1060184670474FF007
:1020C000FF307047700C002000400820FC3F0820C3
:1020D0004FF0FF30704700BF4FF400534B600020BB
:1020E000704700BF01207047002070472DE9F04184
:1020F00082B04FF6FF70324B98470020314B984723
:10210000314A3C211E20314CA047314ABE210120DA
:10211000A047304F3C1D2C372A4E2F4DDFF8D4807E
:102120004FF47840B04734F8040C34F8021C8B1C90
:10213000821C02390238A847C047694601A8274BCC
:102140009847019B2380009B63804FF6FF70B04748
:1021500034F8040C34F8021C8B1C821C023902383F
:10216000A8471F4B98470834A742D9D119481D4B9F
:102170009847044660B94FF6FF70114B984700200E
:10218000104B9847184A82211420104B984712E0B0
:102190004FF6FF700A4B984700200A4B9847134AA6
:1021A00064210A20094CA047114ABE210A20A047F9
:1021B0000B4B98470124204602B0BDE8F08100BFD8
:1021C000C91008000D0E08006C5B0800E91108003A
:1021D0007C5B0800200100203111080085130800F5
:1021E0006D1C0800AD1C0800A45B0800B85B08006B
:1021F000CC5B0800511C080070B50F4E0F4D761BCC
:10220000B61018BF002405D0013455F8043B984798
:10221000A642F9D10A4E0B4D03F022FD761BB610F3
:1022200018BF002406D0013455F8043B9847A64255
:10223000F9D170BD70BD00BF6C5C08006C5C08001B
:10224000745C08006C5C08000FB410B5074B82B0DA
:1022500004AC54F8042B186823468168019400F0FC
:1022600005FA02B0BDE8104004B0704770050020C8
:10227000931E222B10D80A2A10B506D000230C4634
:10228000194400F077F9204610BD0028F6DA2D2316
:102290000B7040420123F2E700200870704700BF36
:1022A000FFF7E6BF70B4840746D0541E002A41D021
:1022B000CDB2034602E0621EE4B3144603F8015BAC
:1022C0009A07F8D1032C2ED9CDB245EA05250F2C5B
:1022D00045EA054519D9264603F11002103E0F2E96
:1022E00042F8105C42F80C5C42F8085C42F8045C6E
:1022F00002F11002F2D8A4F1100222F00F0204F051
:102300000F041032032C13440DD91E462246043A02
:10231000032A46F8045BFAD8221F22F00302043293
:10232000134404F003042CB1C9B21C4403F8011B8C
:10233000A342FBD170BC704714460346C2E700BFFE
:10234000F0B5054689B008460C4600F0E5F8431C98
:10235000144F0393AB6B012604A902220494059049
:10236000AC680697079601910292B3B1B4F90C30AC
:102370009A0406D4626E43F4005322F40052A381FF
:1023800062662146284601AA01F0F6FB002814BF28
:102390004FF0FF300A2009B0F0BD284601F03CFAAA
:1023A000E4E700BFE45B0800024B01461868FFF752
:1023B000C7BF00BF7005002000290CBF0222002209
:1023C0004FF4806300F000B82DE9F043514D83B025
:1023D0002D6804460F4690461E4615B1AB6B002B88
:1023E00079D0B8F1020F04D0B8F1010F7FD8002ED8
:1023F0007DDB2146284601F07BF9216B41B104F1D8
:102400004003994202D0284601F0CEFA002323630C
:10241000B4F90C300022A26162601A0654D423F48D
:102420004A6323F00303B8F1020FA38139D001AB53
:102430006A462146284601F055FDA3891843A0812C
:1024400026B327B3AB6B002B4DD0009BB4F90C0027
:102450009E421CBF40F40060A081B8F1010F08BF8C
:1024600040F0010083B208BFA08103F0080080B2F1
:1024700027602761666118B313F001002FD0002098
:102480007642A661A06003B0BDE8F083009E3046AE
:1024900001F09CFD074668B3A38943F08003A38144
:1024A000D0E7002004F1430243F00203002501219C
:1024B000A381A56022602261616103B0BDE8F08361
:1024C000A06003B0BDE8F0832169284601F06CFAF2
:1024D000B4F90C30A3E7284601F09EF981E7A66025
:1024E00003B0BDE8F083284601F096F9ADE74FF060
:1024F000FF30E2E7DDF80090B14506D0484601F034
:1025000065FD074608B14E46C6E7B4F90C304FF0FA
:10251000FF30C7E77005002020F0030110F0030032
:10252000C0F1000051F8043B00F1040C4FEACC0C60
:102530006FF000021CBF22FA0CF213434FF0010CA3
:102540004CEA0C2C4CEA0C4CA3EB0C0222EA0302E2
:1025500012EACC1204BF51F8043B0430F4D0C2F1AB
:10256000000102EA0102B2FA82F2C2F11F0200EB9C
:10257000D2007047F0B58BB06F461546DFF870E0BB
:1025800004460E46BEE80F000FC7BEE80F000FC797
:102590009EE80300AB1E47F8040B222B397022D8AB
:1025A000711E0846002300E01346B4FBF5F205FB5C
:1025B00012440AAF3C4414F8287C144600F8017F0A
:1025C0005A1C002CF0D1B454F2184BB1013411F85C
:1025D000015F1778181B84420F7002F80159F5DB70
:1025E00030460BB0F0BD002030700BB0F0BD00BF26
:1025F000E85B08004B6E2DE9F0479C0492462CD511
:10260000936812683BB30F46804602F1080919E946
:102610006000B60817D0043D002401E0A64210D0A7
:102620003A4655F8041F404601F05EF9431C04F198
:102630000104F3D10023CAF80830CAF80430BDE819
:10264000F087DAF80830A3EB8603CAF8083009F1FE
:102650000809002BDBD10020ECE701F08DFA002304
:10266000CAF80830CAF80430BDE8F0872DE9F04F09
:10267000ABB01C46009190460493059018B1836B53
:10268000002B00F0DE800098B0F90C108AB295049F
:1026900007D4436E41F4005223F400538281436611
:1026A00092B2110740F1B180009B1B69002B00F032
:1026B000AC8002F01A020A2A00F0B5800DF1680A17
:1026C000D346002302930F930E93CDF834A098F8CD
:1026D00000304446FBB1252B02D11CE0252B03D052
:1026E00014F8013F002BF9D1C8EB04059DB10E9BF6
:1026F0000F9A01332A44072BCBF80080CBF8045003
:102700000F920E937BDD002A40F01F85D346029B7B
:102710000E922B4402932378002B00F03B844FF061
:10272000000300218DF82F3004F10108637808467A
:102730000E460C464FF0FF32019208F10108A3F15A
:102740002002582A00F28B83DFE812F03D03890350
:10275000890345038903890389038903890389035D
:102760007E006B028903860070028903CC015D0242
:102770005D025D025D025D025D025D025D025D0261
:1027800089038903890389038903890389038903E9
:1027900089038903D1018903890389038903890393
:1027A000890389038903890389031A028903890339
:1027B000890389038903E5028903890308038903DF
:1027C00089038903890389038903890389038903A9
:1027D00089032B0382038903890389035E03820330
:1027E000890389036303890370038D028B00E00270
:1027F000890393028903B202890389034A030BF117
:10280000080B029B2B44029385E70099059800F082
:1028100057FE002840F04585009B9A8902F01A0275
:102820000A2A7FF44BAF0099B1F90E30002BFFF666
:1028300045AF23464246059800F00CFE2BB0BDE89C
:10284000F08F00F0E9FF1EE7049A13461468043382
:10285000002C049302DA644246F0040698F8003033
:102860006BE74FF0000304988DF82F3003463021BA
:102870008DF8301001997822002906948DF83120C6
:10288000046803F104034FF0000546F00202C0F2B1
:102890000C8526F0800654EA050246F002060493F1
:1028A00040F0B584B348019B002B40F06284994608
:1028B0005746002301930393019B039A9342B8BFA9
:1028C00013461D46B9F1000F00D0013516F0020382
:1028D000079318BF023516F08403089340F0E8828E
:1028E000069B5C1B002C40F3E382102C40F33C85DC
:1028F000DFF88492DDF838E0DC460F9AC3461023F7
:10290000A84670464D46DDF8149007E000F1020E2F
:1029100008460CF1080C103C102C13DD411C103241
:1029200007290F92CCF80050CCF804300E91EDDD61
:10293000002A40F0A582103C102C10464FF0010EEA
:10294000D446EBDCA94670464546D846E3462244C9
:1029500007280F92CBF80090CBF804400E9000F3BC
:102960006D839DF82F300BF1080B00F1010E002B49
:1029700040F0A782079B002B00F0BA8202320CA91C
:102980000223BEF1070F0F92CDF838E08BE80A0062
:1029900040F37083002A40F00084089B4FF0010E42
:1029A000802B1046D34640F0A782069B5C1B002C70
:1029B00040F3A282102C40F3F884DFF8C091DE4689
:1029C0001023C346A8464D46DDF8149007E000F1F9
:1029D000020C08460EF1080E103C102C13DD411CB1
:1029E000103207290F92CEF80050CEF804300E9125
:1029F000EDDD002A40F00C83103C102C4FF0010C50
:102A00001046D646EBDCA9464546D846F346224456
:102A1000BCF1070F0F92CBF80090CBF80440CDF833
:102A200038C000F3C883019B03990BF1080B5C1AB3
:102A3000002C0CF1010E604600F364820399BEF194
:102A4000070F0A440F92CBF80070CBF80410CDF8B2
:102A500038E040F3C582002A40F0328370070E92BE
:102A600038D5069B5C1B002C34DDD346102C40F37C
:102A70009684DFF804910E994F461026DDF81490E5
:102A800006E0881C19460BF1080B103C102C13DDD6
:102A90004B1C1032072B0F92CBF80070CBF8046060
:102AA0000E93EEDD002A40F08582103C102C4FF092
:102AB00001001146D346EBDCB946224407280F92A9
:102AC000CBF80090CBF804400E9040F39282002A9D
:102AD00040F00C84029B069AAA42ACBF9B185B197B
:102AE000029390E246F0800698F8003025E60694BE
:102AF000002940F0858446F01006B30640F10483B7
:102B00000499073121F00701D1E9002314461D463D
:102B100008310491002A73F10003C0F27C83019B09
:102B20009DF82F90002BC0F20B8354EA050326F08A
:102B3000800600F0DE80002D08BF0A2CC0F0DE8089
:102B40005746204629460A22002302F0F3F9303284
:102B500007F8012D2046294600230A2202F0EAF94F
:102B600004460D4654EA0503EBD1C7EB0A03039371
:102B7000A2E600BF345C0800505C0800105C08004E
:102B80000694002940F0388446F0100616F0200321
:102B900000F0A1824FF00002049B8DF82F20073334
:102BA00023F0070303F10802D3E90045019B0492D7
:102BB000002B0ADB54EA050326F0800605D1019BB1
:102BC000002B00F02784002400254FF00009574611
:102BD000E20842EA4572E90804F007030D4614468C
:102BE000303354EA050207F8013DF1D1F407BCD5B2
:102BF000302BBAD030227B1E07F8012CC3EB0A021F
:102C000003921F4658E6A3F13002002418F8013B56
:102C100004EB840402EB4404A3F13002092AF5D941
:102C20008DE598F8003001212B2086E598F80030DA
:102C300008F101052A2B00F0CC83A3F13002092A08
:102C4000A84698BF002500F2B58318F8013B05EBB4
:102C5000850502EB4505A3F13002092AF5D945EABD
:102C6000E57201926BE5069400298FD08DF82F0054
:102C70008CE74FF00003049A069417688DF82F3004
:102C8000141D019B002F00F07F83002BC0F25383A3
:102C90001A460021384601F04DFC002800F08E83D2
:102CA000C31B0393002304949DF82F90019303E624
:102CB0000694002940F09D8316F0200934D116F0C7
:102CC000100303D116F0400940F01F83049A002539
:102CD00013461468019A8DF82F90002A03F104031B
:102CE000C0F2278354EA050226F0800604937FF49D
:102CF00022AF019B002B3FF4DBAD00242AAF303420
:102D000007F8414DC7EB0A030393D5E546F02006CB
:102D100098F8003011E50694002940F0758346F0DC
:102D2000100616F02009CAD04FF00002049B8DF85F
:102D30002F20073323F0070303F10802D3E90045EE
:102D4000019B0492002BC0F2F98154EA050326F09E
:102D500080064FF000097FF4EEAECAE70694002922
:102D600040F05583B206B24841D5049A073222F0AA
:102D7000070202F108010491D2E9004516F00109A9
:102D800000F07E8154EA050240F02B824FF00003F0
:102D90008DF82F30019B002BC0F2F38226F08006C5
:102DA00081E5049A4FF00001136801258DF8403049
:102DB0001346043306948DF82F100493039510AF37
:102DC0000023019382E598F8003000287FF4B5AC29
:102DD00001212020B1E446F0010698F80030ACE46F
:102DE0000694002940F02A83B2069248BDD4049983
:102DF000F7060A4600F19D81750640F19A8104327A
:102E00000C8804920025B9E746F0400698F8003097
:102E100093E498F800306C2B03BF98F8013046F02B
:102E2000200608F1010846F0100686E4002940F06B
:102E30000283B40640F12082049A134604330493BB
:102E4000029B1168DD171A462B46C1E900233EE4B8
:102E5000069400293FF451AE8DF82F004DE60694FC
:102E6000002940F0E582002B00F094808DF840307E
:102E70004FF0000301258DF82F30039510AF9FE729
:102E80000DAA009948460993FFF7B4FB002840F0CB
:102E900088800E98D4460F9A00F1010E099B3AE5FE
:102EA0000DAA00990598FFF7A5FB002879D1D34614
:102EB0000E989DF82F300F9A00F1010E002B3FF471
:102EC00059AD01320DF12F010123BEF1070F0F9211
:102ED000CDF838E08BE80A0040F3C080002A40F0CB
:102EE0004D810799002940F0BF809E461046D34689
:102EF000089B802B3FF459AD019B03995C1A002C71
:102F00007FF79CAD102CDFF8309125DDDC461023D7
:102F1000C346A8464D46DDF8149007E000F1020EC6
:102F200008460CF1080C103C102C11DD411C10322D
:102F300007290F92CCF80050CCF804300E91EDDD4B
:102F4000D2B9103C102C4FF0010E1046D446EDDCE7
:102F5000A9464546D846E3462244BEF1070F0F92E4
:102F6000CBF80090CBF80440CDF838E02EDC0BF124
:102F7000080B0EF1010E61E50DAA00994846019378
:102F8000FFF738FB68B90E98D4460F9A00F1010E8E
:102F9000019BC8E70F9B23B105980DAA0099FFF785
:102FA00029FB009B9B895A0600F17B8102982BB07C
:102FB000BDE8F08F0DAA00994846FFF71BFB0028DB
:102FC000EFD10E99D3460F9A481C5EE5002A40F0D7
:102FD000FA80D346039A01231B920F921A970E93FD
:102FE0000BF1080B710704D5069B5C1B002C3FF707
:102FF0003DAD029B0699A942ACBF5B185B190293D9
:10300000002A40F0AD8000230E93D346FFF75FBB4C
:103010000DAA009948460793FFF7ECFA0028C0D1A3
:103020000E98D6460F9A00F1010C079BD4E400BF1E
:10303000205C0800345C0800105C0800002A7FF463
:103040002FAF9DF82F30002B00F0F38001231A469C
:103050009E46D3460DF12F011B931A9170460BF13A
:10306000080B0EF1010E85E49E46D3460CA9022200
:103070001A911B9270460BF1080B0EF1010E37E707
:10308000019B8DF82F90002BC0F21B8154EA0503A1
:1030900026F080063FF407AC5746230943EA057340
:1030A000290904F00F020D461C46835C07F8013D18
:1030B00054EA0503F1D1C7EB0A030393FFF7FCBB06
:1030C0000DAA00990598FFF795FA00287FF469AFDB
:1030D000D3460F9A86E716F0100200F0B5800499E7
:1030E0008DF82F300A460C680199043200294FF000
:1030F0000005C0F2528154EA050126F080060492D0
:103100003FF45DAD994662E5049AF706134609D48B
:10311000750607D5B2F900400433E517049322463B
:103120002B46F7E41C680433E517049322462B462C
:10313000F0E414680432049200251FE64FF0000901
:1031400054EA05037FF4F7ACD8E50DAA0099059879
:10315000FFF750FA00287FF424AFD346FFF751BBA6
:103160000DAA00990598FFF745FA00283FF44BAFE8
:1031700017E7002400254FF000098DE70DAA0099FC
:103180000598FFF737FA00287FF40BAF0E98D34667
:103190000F9A00F1010EFFF7EDBB0DAA00990598FB
:1031A000FFF728FA00287FF4FCAE0E98D3460F9A5A
:1031B00000F1010E9CE6002A40F0C8804FF0010E9D
:1031C0001046D34698E60DAA00990598FFF712FA23
:1031D00000287FF4E6AE0E9BD3460F9A03F1010E52
:1031E0002CE48DF831304FF0000330228DF8302080
:1031F000019A8DF82F30002A46F00203C0F2BB80FE
:1032000026F0800646F002064FF0000944E74FF032
:1032100000098C4840E7019B64424FF02D0965EBA3
:103220004505002B8DF82F90FFF685AC26F0800623
:1032300081E4079B002B63D00CAB02221A931B92F4
:103240004FF0010ED34615E716F040093BD0049924
:103250008DF82F200B460C880199043300294FF07C
:103260000005C0F28C8054EA050126F08006049324
:103270003FF4A5AC9146AAE4F0060AD4710608D53D
:10328000049A136804320492BDF808201A80FFF7EC
:103290001EBA049A136804320492029A1A60FFF765
:1032A00016BA4FF0FF30FFF7C9BA1646654854EA20
:1032B000050204934FF000097FF4EEAE00240025D0
:1032C000EAE6049BF3E7049A8DF82F9013461468FE
:1032D000019A0433002A4FF0000550DB54EA05023E
:1032E00026F0800604937FF472AC68E40DAA00997E
:1032F0000598FFF77FF900287FF453AE0F9A78E620
:1033000010464FF0010ED346F6E504998DF82F30A4
:103310000A460C880199043200294FF0000555DB5C
:1033200054EA050126F08006049299467FF403AC26
:10333000DFE4049304E738460494FFF7EDF8002334
:1033400003909DF82F900193FFF7B6BA0DAA00994C
:103350000598FFF74FF900287FF423AE0E98D34667
:103360000F9A00F1010EC7E50E980F9A0130DFF8B1
:10337000DC90FFF7ECBA1E464FF000098CE6049390
:1033800023E44FF0000999E7062B28BF0623039397
:10339000049423EAE3752C4F12E5049215E40E9889
:1033A000DFF8A8900130FFF788BBF446DFF8A09063
:1033B000FFF72DBB00220192FFF7C1B9019B0494D6
:1033C000039301909DF82F90FFF776BA04929946E7
:1033D000B6E6049A13680432002B0193049298F81D
:1033E0000130A846BFF6A9A94FF0FF320192FFF7BE
:1033F000A4B98DF82F005FE48DF82F00FFF7C4BB50
:103400008DF82F00FFF777BB8DF82F0087E48DF83C
:103410002F00A7E49946F30705D52AAF302307F814
:10342000413DFFF7A2BB019B57460393FFF744BA08
:103430008DF82F0017E58DF82F00FAE48DF82F0096
:10344000D2E400BF345C0800485C0800505C08000F
:10345000105C0800F0B50C468989ADF26C4D656EC4
:1034600021F00201666AADF80C10E169E78919954F
:1034700000250791099606951AAE4FF480656946B6
:103480000096049602950595ADF80E700646FFF776
:10349000EDF8051E07DB3046694600F029F90028E3
:1034A00018BF4FF0FF35BDF80C305B0603D5A3897C
:1034B00043F04003A38128460DF26C4DF0BD00BFE0
:1034C00038B5304B054618680C4610B1836B002B9D
:1034D00038D0B4F90C2093B218070CD52069A8B1E4
:1034E00013F001021ED0636900225B42A361A26057
:1034F000F0B1002038BDD9063BD5580725D4206946
:1035000042F00803A3819BB20028E9D103F42072A2
:10351000B2F5007FE4D02846214600F013FDA389D0
:103520002069DDE7990758BF6269A2600028E0D1F1
:10353000B4F90C301A06DDD543F04003A3814FF0F7
:10354000FF3038BD00F068F9C3E7216B51B104F1D9
:103550004003994204D0284600F026FAB4F90C2022
:10356000002323632069002322F0240284E8090059
:10357000C6E742F0400209232B604FF0FF30A281E2
:1035800038BD00BF70050020024B13B1024800F0A7
:1035900005B87047000000002D38080000230146E0
:1035A0001A46184601F0CEBBB1F90C302DE9F041B6
:1035B0009AB20D46110780463CD46A6843F4006312
:1035C000002AAB8173DDAC6A002C4BD09BB203F4B4
:1035D0008052002192B2D8F80060C8F80010002A8A
:1035E00069D02A6D5F0705D569682B6B521A0BB13C
:1035F000EB6BD21A0023E9694046A047441C3CD03B
:10360000B5F90C30296923F400630022AB81DB0497
:1036100085E8060049D4296BC8F8006011B305F1AC
:103620004003994202D0404600F0BEF900202863D2
:10363000BDE8F0812E69AEB190072C680CBF6B69B4
:1036400000232E60A41BAB600AE0234632466F6A5B
:10365000E9694046B8470028A4EB0004064404DDAD
:10366000002CF2DC0020BDE8F081AB894FF0FF3088
:1036700043F04003AB81BDE8F081D8F800201D2A5B
:10368000F3D81A4BD34003F0010383F00104002B5D
:10369000EBD0B5F90C30296923F400632960D90413
:1036A0006C60AB81B7D5002AB5D12865B3E7EA6B6A
:1036B000002A88DCD6E70123E9694046A047431C7D
:1036C000024602D0AB89AC6A8CE7D8F80030002BF8
:1036D000F8D01D2B01D0162B02D1C8F80060C1E72D
:1036E000AB8943F04003AB81BDE8F081010040208D
:1036F00010B5044682B008B1836B53B1B1F90C0028
:1037000008B902B010BD204602B0BDE81040FFF776
:103710004BBF019100F080F80199EFE7014900F0FB
:10372000AFBB00BF0D4E08002DE9F04F07463548EE
:103730007D68002407F53B7204230321F863C7F872
:10374000E412C7F8E822C7F8E04283B02C606C604E
:10375000AC606C66EC812C616C61AC61AB81214624
:1037600005F15C000822FEF79DFDDFF89CB0BE6805
:10377000DFF898A0DFF89890DFF8988001230922FD
:10378000C5F820B0C5F824A0C5F82890C5F82C804D
:10379000ED612146F381B28106F15C003460746012
:1037A000B460746634617461B46108220193FEF7F9
:1037B00079FDFD6812200222F661C6F820B0C6F835
:1037C00024A0C6F82890C6F82C802146A881EA815A
:1037D0002C606C60AC606C662C616C61AC6105F156
:1037E0005C000822FEF75EFD019BED61C5F820B08C
:1037F000C5F824A0C5F82890C5F82C80BB6303B099
:10380000BDE8F08F1D370800754B0800994B080084
:10381000D54B0800F54B0800836B03B17047FFF7E9
:1038200083BF00BF704700BF704700BF38B5074D6A
:10383000074C2C1BA41005D0013C55F8043D9847BB
:10384000002CF9D1BDE8384002F014BA845C0800BD
:10385000805C08002DE9F04182B006460F46144610
:1038600000F03AFB012832D004F15C033A4601A98A
:10387000304601F019FAB0F1FF3F804620D070B316
:103880009DF80410002508E023685A1C2260197076
:103890000135454523D201AB595DA368013B002B9F
:1038A000A360F1DAA269934201DB0A29ECD1224636
:1038B000304601F0A3F9431CEAD102B0BDE8F08123
:1038C000A38943F04003A38102B0BDE8F0817B1ED1
:1038D000FE2BC9D8F9B280468DF80410D2E73846DD
:1038E00002B0BDE8F08100BFB2F90C3013F4005F04
:1038F0000AD110B4546E43F4005344F40054546697
:10390000938110BCFFF7A6BFFFF7A4BFF8B50C4624
:10391000224F064600F02EFFBB685D6825F00305C8
:10392000291B01F6EF7121F47F6121F00F01A1F550
:103930008054B4F5805F07DB0021304601F008F9C0
:10394000BB682B44984204D0304600F015FF00209D
:10395000F8BD6142304601F0FBF801300DD0104B4C
:10396000BA6819682D1B45F001053046091B5560E2
:10397000196000F001FF0120F8BD0021304601F080
:10398000E7F8BA68831A0F2BDEDD064C0449246879
:1039900043F00103001B53600860D5E79805002041
:1039A000800C0020A4090020002945D02DE9F04119
:1039B0000D46804600F0DEFE55F8047C6A49A5F10C
:1039C000080427F00103E2188E685068B24220F024
:1039D000030062D0FE0750600BD455F8087C01F15B
:1039E000080EE41BA5683B4475456FD0E768EF609F
:1039F000BD6015186D68ED0742D543F001026260A5
:103A0000E350B3F5007F18D2DB0848689D1001220F
:103A1000013351F8337002FA05F501EBC302284374
:103A2000083AE260A760486041F83340FC604046D5
:103A3000BDE8F04100F0A0BE70475A0A042A53D8EE
:103A40009A0902F139077F0002F1380501EB87007E
:103A500051F827200838904243494DD0516821F051
:103A600003018B4202D292689042F7D1D068E060A5
:103A7000A2608460D4604046BDE8F04100F07CBEA6
:103A800095683A4F0344BD423FD0D06843F00102ED
:103A9000E86085606260E350B3E7FF07034407D442
:103AA00055F8085C641BE268A0682B44C260906013
:103AB0002F4A43F001001268606093428C60B6D3D5
:103AC0002C4B40461968FFF721FFB0E711184968F1
:103AD000C90744D491680344D26843F00100CA6026
:103AE00091606060E350A2E7142A17D802F15C07E6
:103AF0007F0002F15B05A9E7AA104B68012505FAD2
:103B000002F213434B600246B1E743F001024C61FD
:103B10000C61E560A5606260E35088E7542A06D82E
:103B20001A0B02F16F077F0002F16E058EE7B2F506
:103B3000AA7F06D8DA0B02F178077F0002F1770539
:103B400084E740F25450824206D89A0C02F17D0775
:103B50007F0002F17C0579E7FE277E2576E743F0BA
:103B600001026260E35062E798050020A005002092
:103B7000A00900207C0C00209368002B00F0AB8093
:103B80002DE9F04F8B8985B00C4619070290164637
:103B900028D5226932B303F002081FFA88F035688D
:103BA00078B34FF00009C846DFF8D0A2B8F1000F93
:103BB00000F08B80D04543464A4628BF5346E16912
:103BC0000298676AB847002840F3A580B36881442B
:103BD0001B1AC0EB0808B360002BE7D1002005B02A
:103BE000BDE8F08F21460298FFF76AFC002840F0FC
:103BF0003C81A389356803F002081FFA88F0002889
:103C0000CFD113F0010940F090804F460196002F6C
:103C100056D09A05D4F808805FD54745C246C0F013
:103C2000BF8013F4906F00F0BD8062692068216945
:103C300002EB4208C1EB000A08EBD8780AF1010058
:103C40004FEA680838444045424684BF80464246B1
:103C50005B0540F1F2801146029800F0BFF98346FF
:103C6000002800F005815246216900F0A9FCA389D3
:103C700023F4906343F08003A381CAEB08030BEBAA
:103C80000A00C4F81480BA46B846C4F810B02060E0
:103C9000A3605246494600F009FDA0682368C8EBBE
:103CA0000000A060384653442360019A8144936821
:103CB0003F1A1B1A9360002B90D0A389002FA8D124
:103CC000D5F800906F680835A1E7D5F80090D5F8D1
:103CD000048008356AE7002070472068236998420D
:103CE00003D86269974280F08380B84528BFB84600
:103CF0004946424600F0DAFCA3682268C8EB030399
:103D00004244A3602260002B48D121460298FFF76D
:103D1000EFFC002842D0B4F90C3043F040034FF0E0
:103D2000FF30A38105B0BDE8F08F80468246814612
:103D30000190B9F1000F29D0019B002B4BD0C84551
:103D4000C34628BFCB46206823695F469842626914
:103D500003D9A36813449B455CDC934524DB1346DD
:103D6000676A5246E1690298B847071ED3DDB8EB8F
:103D7000070827D0B368BA44DB1BC7EB0909B36057
:103D8000002B3FF42BAFB9F1000FD5D10023D5F8AC
:103D900000A0D5F8049001930835CAE7404684E7AF
:103DA000B846BA46206874E75A46514600F07EFC91
:103DB000A2682368CBEB02025B44B8EB0708A26061
:103DC0002360D7D121460298FFF792FC0028A2D1A8
:103DD000CDF80480CEE74A460A21504600F0AAFBFF
:103DE00000283DD001300123CAEB00080193A6E76B
:103DF0006FF00043BB4228BF3B4693FBF2F3E169FF
:103E000002FB03F302984A46666AB04700283FF770
:103E10004CAF80E71A465146039300F047FC2268F6
:103E2000039B21461A4422600298FFF761FC039B22
:103E300000287FF470AF1F4699E7029800F09EFCBF
:103E4000834600287FF419AF029D21692846FFF7B9
:103E5000ABFDB4F90C300C2223F080032A605CE740
:103E6000012309F10108019369E74FF0FF30B6E63D
:103E7000029A0C231360B4F90C304EE700FCFF7F6C
:103E80002DE9F84310F538761ED0884607464FF0E6
:103E900000097568B468013D10D4A389013D012B68
:103EA00008D9B4F90E30013304D021463846C04752
:103EB00049EA00096B1C04F16804EED13668002E53
:103EC000E7D14846BDE8F883B1464846BDE8F883E7
:103ED0000048704774050020014B1868704700BF08
:103EE0009405002070B50E46B1F90E1090B000296F
:103EF00014461D4614DB01AA00F0CAFF00280FDBA0
:103F0000029A4FF4806302F47042A2F50052B2FAB2
:103F100082F24FF4006052092A60236010B070BD35
:103F2000B289002002F0800292B228601AB14023C8
:103F3000236010B070BD10464FF48063236010B052
:103F400070BD00BF8A890B46920706D501F1430276
:103F500001211A601A6159617047F0B583B001AB55
:103F60006A460C460546FFF7BDFF009906462846FF
:103F700000F034F8B4F90C30D0B19DE80600124FCF
:103F800043F08003EF63A3812060206161611AB96F
:103F90003343A38103B0F0BD2846B4F90E1000F0FE
:103FA0008BFFB4F90C300028F2D043F00103EFE7A7
:103FB0009A05EFD404F1430243F002030121A381E7
:103FC000226022616161E5E71D370800024B01466E
:103FD000186800F003B800BF700500202DE9F04F0D
:103FE00001F10B05162D83B0064640F2A08035F096
:103FF000070500F1C080A94200F2BD8000F0BAFBC5
:10400000B5F5FC7FC0F090826B0A00F0BB80042BFA
:1040100000F27781A80900F1390E4FEA4E013830DD
:10402000BE4F07EB81014C680839A14207D1AEE0D1
:10403000002A80F2AE80E468A14200F0A8806368A4
:1040400023F003035A1B0F2AF2DDB4493C6901F146
:10405000080E744500F0A881636823F003035A1B1F
:104060000F2A00F38E81002AC1F814E0C1F810E095
:1040700080F29380B3F5007F80F05C81DB084A68B2
:104080004FEAA3094FF0010C013351F833800CFAC9
:1040900009F901EBC30C49EA0202ACF1080CC4F8BF
:1040A0000CC0C4F808804A6041F83340C8F80C409E
:1040B000831001249C4094427CD8144206D120F005
:1040C00003006400144200F10400FAD007EBC009B9
:1040D000CC468046DCF80C108C4507D166E1002AFE
:1040E00080F27481C9688C4500F060814B6823F0D0
:1040F00003035A1B0F2AF2DD0C46CB6854F808CF95
:1041000045F00108C1F804800D4442F00101CCF8EB
:104110000C303046C3F808C07D613D61C5F80CE045
:10412000C5F808E06960AA5000F026FB1FE01029DE
:1041300021D800F01FFB102506230220774F07EB44
:1041400083035C68A3F10802944200F0388163683D
:10415000E16823F0030323445A68A56842F0010292
:10416000E96030468D605A6000F006FB0834204656
:1041700003B0BDE8F08F002420460C23336003B069
:10418000BDE8F08F80214FF0400E3F2048E7704699
:104190005BE723445A68E168DFE723445A68304606
:1041A00042F001025A60083400F0E6FA204603B0FB
:1041B000BDE8F08FBC68636823F00308A84504D30A
:1041C000C5EB08030F2B00F38C80554BDFF8609193
:1041D0001A68D9F800302A44013304EB080A00F0C9
:1041E000608102F580520F3222F47F6222F00F02CA
:1041F00011463046019200F0ABFCB0F1FF3F834620
:10420000019A00F05881824500F2FC80454BDA4566
:1042100019681144196000F05381D9F80000DFF8E3
:1042200010E101301BBFCAEB0B0A5144CEF800B0BD
:1042300019601BF0070100F01781C1F10800C1F5FA
:104240008051834408315A44C2F30B02C2EB010986
:1042500049463046019300F07BFC431C019B00F073
:104260003F81CBEB00024A4442F001021968BC4294
:104270004944C7F808B01960CBF80420DFF8A490CF
:1042800016D0B8F10F0F40F2FD806268A8F10C0360
:1042900023F0070302F00102E0184FF0050E1A4365
:1042A0000F2B6260C0F804E0C0F808E000F21C8147
:1042B0001D4BBC681A68914288BF19601B4B1A6875
:1042C0009142626888BF196022F003029542A2EB16
:1042D000050301D80F2B04DC304600F04DFA002412
:1042E00045E745F0010243F0010325446260304692
:1042F000BD6008346B6000F03FFA204603B0BDE8B3
:10430000F08F142B71D9542B00F2A480280B00F1EC
:104310006F0E4FEA4E016E3082E600BF9805002016
:104320007C0C0020800C0020780C0020740C0020F5
:10433000A40900205A0A042A5ED9142A00F2B38084
:1043400002F15C0149005B3207EB810C57F8211048
:10435000ACF1080C8C45DFF8D88100F088804A6801
:1043600022F00302934202D289688C45F7D1D1F83A
:104370000CC07A68C4F80CC0A160CCF80840CC60CE
:1043800096E645F0010742F0010325446760304698
:104390004D610D61C5F80CE0C5F808E06B60AA50EE
:1043A000083400F0E9F9E2E64A6881E608F101081C
:1043B00018F0030F0CF1080C7FF48CAE30E0DC68D1
:1043C000A34208BF02303FF440AEC0E60C460B44A7
:1043D0005A68C96854F8085F42F001025A603046D2
:1043E000E9608D6000F0C8F9C1E603F15C0E03F1ED
:1043F0005B004FEA4E0113E69A0902F139014900C8
:104400003832A1E7BC424A4B3FF400AF9C68626877
:1044100022F003025AE759F80839994540F08280A2
:1044200010F0030F00F1FF30F5D17B6823EA04039D
:104430007B6064009C423FF6BDAE002C3FF4BAAEF8
:104440001C4240467FF442AE64001C4200F104006E
:10445000FAD03BE6B3F5AA7F18D8E80B00F1780E46
:104460004FEA4E017730DBE54FF48051EBE6012156
:10447000D8F80430921001FA02F21A43C8F8042066
:10448000614677E70123CBF8043025E740F2545228
:10449000934220D8A80C00F17D0E4FEA4E017C30EB
:1044A000BEE51032A4E6542A26D81A0B02F16F0199
:1044B00049006E3248E7BC68626822F0030205E7F3
:1044C000CAF30B0000287FF4A8AE4244BB6842F058
:1044D00001025A60ECE6FE214FF07F0E7E209FE540
:1044E00001224FF00009C1E604F108013046FFF750
:1044F0005BFAD9F80010DBE6B2F5AA7F05D8DA0B33
:1045000002F17801490077321EE740F254518A42A5
:1045100005D89A0C02F17D0149007C3214E7FE2196
:104520007E2211E77B6884E7E808431C5B0005E610
:1045300098050020830770B4CDB23DD0531E02B35E
:104540000278AA421ED0421C04E0D3B10478013B99
:10455000AC4217D012F0030F104602F10102F4D161
:10456000032B11D853B30278AA420BD00344421C48
:1045700002E00178A94205D09342104602F10102FF
:10458000F7D1002070BC704704460E0206F47F4647
:104590002E4346EA0646226820467240A2F10131C7
:1045A00021EA020212F0803F04F10404DBD1043B53
:1045B000032B2046EFD8D5E71346D1E71846E1E7AD
:1045C000844641EA000313F0030349D1403A23D360
:1045D0000B6803604B6843608B688360CB68C36083
:1045E0000B6903614B6943618B698361CB69C3616B
:1045F0000B6A03624B6A43628B6A8362CB6AC36253
:104600000B6B03634B6B43638B6B8363CB6BC3633A
:1046100040304031403ADBD230320BD30B6803607C
:104620004B6843608B688360CB68C3601030103187
:10463000103AF3D20C3205D351F8043B40F8043B56
:10464000043AF9D2043208D0D2071CBF11F8013B5A
:1046500000F8013B01D30B8803806046704700BF20
:10466000082A13D38B07B1D010F00303AED0C3F1E7
:104670000403D21ADB071CBF11F8013B00F8013B11
:10468000A4D331F8023B20F8023B9FE7043AD9D388
:10469000013A11F8013B00F8013BF9D20B780370A5
:1046A0004B7843708B788370604670478842F0B5D2
:1046B0000DD98B1898420AD28118002A51D09A1A23
:1046C00013F8014D934201F8014DF9D1F0BD0F2AC5
:1046D00048D941EA00039B0746D1154600F1100472
:1046E00001F1100353F8106C103D44F8106C53F8AE
:1046F0000C6C0F2D44F80C6C53F8086C04F110048A
:1047000044F8186C53F8046C03F1100344F8146C6B
:10471000E8D8A2F1100323F00F0302F00F0E1033BC
:10472000BEF1030F1944034421D90E4674461D1FE0
:1047300056F8047B043C032C45F8047FF8D8AEF10E
:10474000040424F0030404342344214402F003024B
:1047500062B1013B0A4411F8014B8A4203F8014F50
:10476000F9D1F0BD0346F3E70346F2E7F0BD724628
:10477000EEE700BF704700BF704700BF2DE9F04F64
:10478000174683B0002900F08F800D46814607F15F
:104790000B04FFF7EFFF55F804EC162C2EF0030680
:1047A000A5F108083CD810221446A7423DD89642ED
:1047B00042DAC64B08EB060099688842416800F06F
:1047C000D78021F0010303445B68DB074CD51EF062
:1047D000010F00F09D8039464846FFF7FFFB074672
:1047E00000283AD055F8043CA0F1080223F0010358
:1047F00043449A4200F03E81321F242A00F22B816A
:10480000132A00F2FF8003462A4611681960516896
:10481000596092689A6029464846FFF7C5F81CE03F
:1048200024F00704002C2246BFDA0C230020C9F82C
:10483000003003B0BDE8F08F2F46331B0F2BD8F8A4
:1048400004201DD802F00102324308EB0601C8F82B
:1048500004204B6843F001034B604846FFF78CFF90
:10486000384603B0BDE8F08F21F003013144914296
:1048700020DBC36882682F46D3600E469A60DCE76F
:1048800002F0010208EB0401144343F00102C8F8EE
:1048900004400B444A605A68083142F001025A60F1
:1048A0004846FFF781F8D8E7114603B0BDE8F04F5E
:1048B000FFF794BB1EF0010F8DD155F8083CC3EBF8
:1048C000080ADAF8043023F0030C01EB0C0E9645CD
:1048D00026DB5746C3688168321FCB60996057F862
:1048E000081FDAF80C30242ACB60996000F2C980E6
:1048F000132A40F292802B681B2ACAF808306B6892
:10490000CAF80C3000F2CD8008350AF1100385E0BA
:1049100055F8083CC3EB080ADAF8043023F0030C1E
:1049200006EB0C039342FFF656AF5746DAF80C102D
:1049300057F8080F321F242AC160886000F2AA804D
:10494000132A40F2A58029681B2ACAF80810696852
:10495000CAF80C1000F2BC8008350AF11002296870
:104960001E4611606968D0465160AB68936064E789
:1049700021F0030B04F11000B344834557DA1EF015
:10498000010F7FF428AF55F8081CC1EB080ADAF8CC
:10499000041021F0030CE3445845C1DC5746DAF813
:1049A0000C1057F8080F321F242AC160886000F2EB
:1049B000B180132A40F2A28029681B2ACAF8081085
:1049C0006968CAF80C1000F2AC8008350AF11002D0
:1049D0002968116069685160A9689160C4EB0B0295
:1049E0000AEB040142F0010299604A60DAF80430EF
:1049F000484603F001031C43CAF80440FFF7BCFE1D
:104A000038462EE72B681B2A03606B68436026D864
:104A100000F1080305F10802F7E63B462A687646EE
:104A20001A606A68D0465A60AA689A6005E7C4EBC3
:104A30000B0B08EB04014BF0010299604A6055F83A
:104A4000043C484603F001031C4345F8044CFFF7BF
:104A500093FE284605E72946FFF728FEDBE6AB680C
:104A6000242A8360EB68C36027D000F1100305F1AE
:104A70001002CAE650F8043C2F4623F003031E44FC
:104A8000DBE6294638467646D046FFF70FFED4E6E9
:104A90003A4664E7294638461E46D046FFF706FEEA
:104AA000CBE6AB68242ACAF81030EB68CAF8143099
:104AB0001AD010350AF11803B0E72A6900F118037B
:104AC0000261696905F1180241619EE698050020BE
:104AD000A968242ACAF81010E968CAF814100FD07F
:104AE00010350AF118023AE72A690AF12003CAF8D8
:104AF00018206A691835CAF81C208FE73A4667E71C
:104B000029690AF12002CAF8181069691835CAF82B
:104B10001C1024E7294638460193FFF7C7FD019B87
:104B20005CE7A968242ACAF81010E968CAF81410CA
:104B300003D010350AF118024AE729690AF1200268
:104B4000CAF8181069691835CAF81C1040E700BF88
:104B500038B5074C0023054608462360FDF79EFA4A
:104B6000431C00D038BD2368002BFBD02B6038BD20
:104B7000B80C002010B50C46B1F90E1000F0C4F9C5
:104B8000002803DB236D0344236510BDA38923F4B0
:104B90008053A38110BD00BF2DE9F0410C46B1F94F
:104BA0000C101F46CB051646054607D5B4F90E1066
:104BB0000223002200F092F9B4F90C1021F4805184
:104BC000A1813B463246B4F90E102846BDE8F041BB
:104BD00000F0A2B810B50C46B1F90E1000F07EF945
:104BE000A389421C0EBF23F4805343F480532065F5
:104BF000A38110BDB1F90E1000F0F6B8F8B50E465D
:104C00001446074610B1836B002B4AD0B4F90C2030
:104C1000A36991B20807A36038D52369002B35D06A
:104C20008904F5B215D522686169D31A8B421CDA62
:104C30000133A168501C0139A160206016706269BF
:104C40009A421AD0A389DB0701D50A2D15D0284630
:104C5000F8BD616E42F4005221F40051A281226835
:104C600061666169D31A8B42E2DB21463846FEF762
:104C70003FFD40B922680123DBE721463846FEF7B5
:104C800037FD0028E3D04FF0FF30F8BD214638460D
:104C9000FEF716FC0028F6D1B4F90C20236991B276
:104CA000BEE7FEF7B9FDB1E72DE9F041054686B054
:104CB0001E460C46A1B1104B1746D3F80080FFF7F3
:104CC00007F9009603463A4621462846C047431C4A
:104CD00003D100228A2332602B6006B0BDE8F08148
:104CE000054B1F68FFF7F4F800960346224603A918
:104CF0002846B847EBE700BFA809002021B1FF2AEA
:104D000004D80A7001207047084670478A23036060
:104D10004FF0FF30704700BF70B50D46084C11468C
:104D200006461A46284600232360FBF7E7FE431C8D
:104D300000D070BD2368002BFBD0336070BD00BF76
:104D4000B80C00202DE9F047254C0646256888461A
:104D5000D5F8484192469946C4B360681F2817DCCD
:104D6000411C76B104EB8003C3F888A0D4F88851C5
:104D7000012282401543022EC4F88851C3F80891DD
:104D80001ED0831C6160002044F82380BDE8F087BA
:104D9000144B03B34FF4C870FFF718F90446D0B1B1
:104DA000D5F84831002784E888003846C5F84841DE
:104DB0000121C4F88871C4F88C71002EE1D0D1E7CC
:104DC000D4F88C311A43C4F88C21DAE705F5A674BF
:104DD000C5F84841C1E74FF0FF30BDE8F08700BF9C
:104DE000E05B0800CD3F080038B5074C00230546BE
:104DF00008462360FDF76CF9431C00D038BD2368DA
:104E0000002BFBD02B6038BDB80C002000293DD012
:104E100070B505460C4608B1836B7BB3B4F90C3012
:104E20000BB9002070BD21462846FEF7BDFBE36AA2
:104E3000064633B1E169284698470028B8BF4FF0CD
:104E4000FF36A3891B061CD4216B41B104F140033A
:104E5000994202D02846FEF7A7FD00232363616C28
:104E600021B12846FEF7A0FD00236364FEF7DAFCBB
:104E70000023A381FEF7D8FC304670BDFEF7CCFCC2
:104E8000CCE721692846FEF78FFDDDE7002070475B
:104E900038B50B46074C05461146184600232360DB
:104EA000FDF71AF9431C00D038BD2368002BFBD056
:104EB0002B6038BDB80C002038B5074C00230546E0
:104EC00008462360FDF70EF9431C00D038BD236867
:104ED000002BFBD02B6038BDB80C002070B50D4600
:104EE000084C114606461A46284600232360FDF763
:104EF000FBF8431C00D070BD2368002BFBD033604F
:104F000070BD00BFB80C002070B50D46084C1146AE
:104F100006461A46284600232360FBF7D1FD431CB2
:104F200000D070BD2368002BFBD0336070BD00BF84
:104F3000B80C002053B94AB9002908BF00281CBF8B
:104F40004FF0FF314FF0FF3000F082B9ADF1080CA7
:104F50006DE904CE00F006F8DDF804E0DDE9022397
:104F600004B070472DE9F04F8C460C460546099E6B
:104F7000002B4FD18A4217466BD9B2FA82FEBEF19E
:104F8000000F0BD0CEF1200520FA05F501FA0EF343
:104F900045EA030C02FA0EF700FA0EF5390CBCFBD9
:104FA000F1F0BAB201FB10C300FB02F84FEA154C56
:104FB0004CEA0344A04509D9E41900F1FF3380F01D
:104FC0002881A04540F2258102383C44C8EB040406
:104FD000B4FBF1F301FB134C03FB02F2ACB244EA65
:104FE0000C418A4209D9C91903F1FF3480F00F81BD
:104FF0008A4240F20C81023B39448A1A43EA00405B
:105000000021002E63D022FA0EF2002386E80C0065
:10501000BDE8F08F8B4207D9002E56D0002186E8DC
:1050200011000846BDE8F08FB3FA83F1002940F083
:105030009380A34202D3824200F2FE80851A64EB81
:1050400003039C460120002E41D086E82010BDE8D5
:10505000F08F12B90127B7FBF2F7B7FA87FEBEF15E
:10506000000F36D1E41B4FEA17481FFA87F90121D8
:10507000B4FBF8F308FB134409FB03F24FEA154CA9
:105080004CEA0444A24207D9E41903F1FF3002D2EA
:10509000A24200F2D3800346A41AB4FBF8F008FB46
:1050A000104809FB00F9ACB244EA0842914507D91F
:1050B000D21900F1FF3402D2914500F2BA802046A5
:1050C000C9EB020240EA03409BE731463046BDE8A7
:1050D000F08F07FA0EF7CEF1200C24FA0CF34FEA0A
:1050E0001748B3FBF8FA1FFA87F908FB1A3520FABC
:1050F0000CFC04FA0EF40AFB09FB4CEA040C4FEA20
:105100001C4242EA05439B4500FA0EF50AD9DB1919
:105110000AF1FF3280F08B809B4540F28880AAF133
:10512000020A3B44CBEB0303B3FBF8F008FB10335C
:1051300000FB09F41FFA8CFC4CEA03439C4207D99C
:10514000DB1900F1FF326ED29C426CD902383B442D
:105150001C1B40EA0A418BE7C1F1200E8B4022FA6A
:105160000EFC4CEA030C24FA0EF74FEA1C49B7FB7D
:10517000F9FA1FFA8CF309FB1A7720FA0EF88C4023
:105180000AFB03F548EA04044FEA144848EA0747D3
:10519000BD4202FA01F200FA01FB09D917EB0C0734
:1051A0000AF1FF3041D2BD423FD9AAF1020A674459
:1051B0007F1BB7FBF9F509FB157705FB03F3A4B2D9
:1051C00044EA0747BB4208D917EB0C0705F1FF304B
:1051D00027D2BB4225D9023D674445EA0A40A0FBDD
:1051E0000289FF1A4F4545464C4614D329D066B371
:1051F000BBEB050367EB040707FA0EFECB40CF407D
:105200004EEA030386E888000021BDE8F08F2346BC
:10521000F3E61846DAE6B8EB020569EB0C04013850
:10522000E5E70546D9E7104692E78246C0E7924691
:1052300078E702383A4443E7084604E7023B3C4437
:105240002AE7C345E7D33C46D1E73146BDE8F08FB6
:10525000704700BF37000000380000003900000030
:105260005800000034000000350000003600000047
:105270002F00000031000000320000003300000069
:105280002D00000043000000300000003D00000041
:105290002B00000050656E206D6F76656420617490
:1052A000202020202028253033752C2025303375F0
:1052B000290A0D0050656E20707265737365642055
:1052C000617420202028253033752C20253033753B
:1052D000290A0D0050656E2072656C656173656406
:1052E000206174202028253033752C20253033751B
:1052F000290A0D002D2D205350495F546F756368A6
:1053000073637265656E204578616D706C65202DE4
:105310002D0D0A2D2D2053414D33552D454B202D5C
:105320002D0D0A2D2D20436F6D70696C65643A2038
:1053300044656320313420323031372031323A3401
:10534000383A3132202D2D0D00000000436F6E667B
:1053500069677572652073797374656D207469630C
:105360006B20746F2067657420316D7320746963DE
:105370006B20706572696F642E0D000043616C696B
:1053800062726174696F6E207375636365737366AF
:10539000756C20210D00000043616C6962726174BC
:1053A000696F6E206661696C65643B206572726F1F
:1053B000722064656C746120697320746F6F206261
:1053C0006967202120506C65617365207265747275
:1053D000792063616C6962726174696F6E207072AA
:1053E0006F6365647572652E2E2E0D00000000003F
:1053F00000000000000000000000000000000000AD
:105400000000000000000000FFCCFFCC0000000006
:105410000000000000000000F000F00000000000AC
:10542000F000F000000000000CC00CC0FFFCFFFC0E
:105430000CC00CC0FFFCFFFC0CC00CC00C601E704C
:105440003F303330FFFCFFFC333033F039E018C01D
:105450006000F00CF03C60F003C00F003C18F03C22
:10546000C03C00183CF07FF8C31CC78CCFCCDCECF0
:105470007878303000FC00CC0000000000004400D0
:10548000EC00F800700000000000000000000000C8
:105490000FC03FF078786018C00CC00C000000000E
:1054A00000000000C00CC00C601878783FF00FC0FE
:1054B000000000000C600EE007C003803FF83FF8DA
:1054C000038007C00EE00C6003000300030003002C
:1054D0003FF03FF00300030003000300004400EC32
:1054E00000F8007000000000000000000000000054
:1054F0000300030003000300030003000300030094
:10550000030003000018003C003C001800000000ED
:1055100000000000000000000000000C003C00F053
:1055200003C00F003C00F000C00000003FF07FF817
:10553000E0FCC1CCC38CC70CCE0CFC1C7FF83FF048
:1055400000000000300C700CFFFCFFFC000C000C95
:1055500000000000300C701CE03CC07CC0ECC1CCF2
:10556000C38CE70C7E0C3C0C30307038E01CC00C57
:10557000C00CC30CC30CE31C7FF83CF003C007C095
:105580000EC01CC038C070C0FFFCFFFC00C000C0D3
:10559000FC30FC38CC1CCC0CCC0CCC0CCC0CCE1C79
:1055A000C7F8C3F03FF07FF8E31CC30CC30CC30C77
:1055B000C30CE39C71F830F0C000C000C000C00014
:1055C000C3FCC7FCCE00DC00F800F0003CF07FF824
:1055D000E79CC30CC30CC30CC30CE79C7FF83CF0E6
:1055E0003C007E00E70CC30CC31CC338C370E7E06B
:1055F0007FC03F8000000000000018603CF03CF0DD
:1056000018600000000000000000000000001844C6
:105610003CEC3CF8187000000000000000000300A3
:1056200007800FC01CE038707038E01CC00C000010
:105630000CC00CC00CC00CC00CC00CC00CC00CC00A
:105640000CC00CC00000C00CE01C703838701CE0AE
:105650000FC007800300000030007000E000C000B1
:10566000C1ECC3ECC300E6007E003C0030F071F8F2
:10567000E39CC30CC3FCC3FCC00CE01C7FF83FF0F0
:105680003FFC7FFCE0C0C0C0C0C0C0C0C0C0E0C024
:105690007FFC3FFCFFFCFFFCC30CC30CC30CC30C22
:1056A000C30CE79C7FF83CF03FF07FF8E01CC00C97
:1056B000C00CC00CC00CE01C70383030FFFCFFFC8C
:1056C000C00CC00CC00CC00CC00CE01C7FF83FF03C
:1056D000FFFCFFFCC30CC30CC30CC30CC30CC30CFA
:1056E000C00CC00CFFFCFFFCC300C300C300C30020
:1056F000C300C300C000C0003FF07FF8E01CC00C36
:10570000C00CC30CC30CE31C73F833F0FFFCFFFCAC
:10571000030003000300030003000300FFFCFFFC81
:1057200000000000C00CC00CFFFCFFFCC00CC00C53
:105730000000000000300038C01CC00CC00CC01CB1
:10574000FFF8FFF0C000C000FFFCFFFC07800780EF
:105750000FC01CE038707038E01CC00CFFFCFFFC70
:10576000000C000C000C000C000C000C000C000CD9
:10577000FFFCFFFC700038001F001F0038007000A5
:10578000FFFCFFFCFFFCFFFC1C000E000700038079
:1057900001C000E0FFFCFFFC3FF07FF8E01CC00C04
:1057A000C00CC00CC00CE01C7FF83FF0FFFCFFFCFD
:1057B000C300C300C300C300C300E7007E003C0079
:1057C0003FF07FF8E01CC00CC0CCC0ECC07CE038DF
:1057D0007FFC3FECFFFCFFFCC300C380C380C3C061
:1057E000C3C0E7707E3C3C1C3C187E1CE70CC30C1D
:1057F000C30CC30CC30CC39CE1F860F0C000C00034
:10580000C000C000FFFCFFFCC000C000C000C00022
:10581000FFF0FFF8001C000C000C000C000C001C3A
:10582000FFF8FFF0FFC0FFE000700038001C001C14
:1058300000380070FFE0FFC0FFF0FFF8001C003CE4
:1058400000F800F8003C001CFFF8FFF0F03CF87C8A
:105850001CE00FC0078007800FC01CE0F87CF03C04
:10586000FC00FE000700038001FC01FC0380070030
:10587000FE00FC00C03CC07CC0ECC1CCC38CC70C9B
:10588000CE0CDC0CF80CF00C00000000FFFCFFFC60
:10589000C00CC00CC00C0000000000003000300044
:1058A0000C000C000300030000C000C000300030FA
:1058B00000000000C00CC00CC00CFFFCFFFC00008E
:1058C000000000000C001C0038007000E000E00048
:1058D000700038001C000C00000C000C000C000CC8
:1058E000000C000C000C000C000C000C0000000070
:1058F000C000E00070003800180000000000000048
:10590000003006780EFC0CCC0CCC0CCC0CCC0ECCA5
:1059100007FC03F8FFFCFFFC030C030C030C030C57
:10592000030C039C01F800F003F007F80E1C0C0CAC
:105930000C0C0C0C0C0C0E1C0738033000F001F89A
:10594000039C030C030C030C030C030CFFFCFFFC77
:1059500003F007F80EDC0CCC0CCC0CCC0CCC0EDC21
:1059600007D80390000003003FFC7FFCE300E30046
:1059700070003000000000000318079C0FCC0CCC16
:105980000CCC0CCC0CCC0CDC0FF807F0FFFCFFFCB3
:105990000300030003000300038001FC00FC00007F
:1059A00000000000000000001BFC1BFC00000000C9
:1059B00000000000000000300038001C000C000C4B
:1059C000001CCFF8CFF000000000FFFCFFFC00E05F
:1059D00001E003F007380E1C0C0C00000000000072
:1059E000C00CC00CFFFCFFFC000C000C0000000011
:1059F0000FFC0FFC0E00070003C003C007000E00E1
:105A00000FFC0FFC0FFC0FFC030007000E000C0046
:105A10000C000E0007FC03FC03F007F80E1C0C0C36
:105A20000C0C0C0C0C0C0E1C07F803F00FFC0FFCFC
:105A30000CC00CC00CC00CC00CC00FC00780030011
:105A4000030007800FC00CC00CC00CC00CC00CC001
:105A50000FFC0FFC0FFC0FFC038007000E000C0076
:105A60000C000E00070003000318079C0FCC0CCCA1
:105A70000CCC0CCC0CCC0CFC0E78063000000C00CE
:105A80000C00FFF0FFF80C1C0C1C0C380C30000054
:105A90000FF00FF8001C000C000C000C000C001C98
:105AA0000FF80FF00FC00FE000700038001C001C52
:105AB000003800700FE00FC00FF00FF8001C001C42
:105AC00000F800F8001C001C0FF80FF00C0C0E1C66
:105AD000073803F001E001E003F007380E1C0C0C5E
